:100000000C9403030C943B030C943B030C943B03B0
:100010000C943B030C943B030C943B030C943B0368
:100020000C943B030C943B030C9481270C945528AF
:100030000C9452210C943B030C943B030C943B0313
:100040000C943B030C943B030C943B030C943B0338
:100050000C943B030C94D9210C943B030C943B036C
:100060000C943B030C943B030C943B030C943B0318
:100070000C943B030C943B030C943B030C943B0308
:100080000C943B030C943B030C943B030C943B03F8
:100090000C943B030C943B030C943B030C943B03E8
:1000A0000C943B030C943B030C943B032900140079
:1000B0001A000800150017001C0018000C001200A0
:1000C00013002A002B0004001600070009000A0094
:1000D0000B000D000E000F002F003000E1001D008E
:1000E0001B00060019000500110010003600370043
:1000F00038002800E000E2000100225221522C00CA
:100100002C0001005000520051004F00A8000000D8
:1001100000000000000000000000000000000000DF
:1001200000000000010001000100010001000100C9
:1001300001000100010001000100010001000100B7
:1001400001000100010001000100010001000100A7
:100150000100010001000100010001000100010097
:100160000100010001000100010001000100010087
:100170000100010001000100010001000100010077
:10018000010001000100000000000000000000006C
:10019000000000000000000000000000444542553F
:1001A000473A2064697361626C65642E0A004445B5
:1001B0004255473A20656E61626C65642E0A000AFA
:1001C0000025303258006C65645F7461736B3A20AF
:1001D000004F6E6573686F743A2061637469766569
:1001E0003A2025640A000A002530313662003A20A0
:1001F0000025303258000A722F63203031323334F8
:1002000035363738394142434445460A00290A0009
:100210002575002F002575005D280025640020004D
:10022000256400200025640020002564007C002552
:10023000303258006D6F7573656B6579205B627441
:100240006E7C782079207620685D287265702F6139
:10025000636C293A205B006F6C65645F6F66662093
:10026000636D64206661696C65640A0000AE6F6C42
:1002700065645F6F6E20636D64206661696C6564A0
:100280000A0000AF6F6C65645F72656E64657239F9
:10029000302064617461206661696C65640A006F76
:1002A0006C65645F72656E64657220646174612060
:1002B0006661696C65640A006F6C65645F72656E87
:1002C000646572206F666673657420636F6D6D611F
:1002D0006E64206661696C65640A00646973706CA1
:1002E00061795F736574757032206661696C6564ED
:1002F0000A0000DA0281FFD9F1DB20A4A62EAF6448
:100300006973706C61795F666C6970706564206692
:1003100061696C65640A0000A0C06F6C65645F6908
:100320006E697420636D64206E6F726D616C2072F3
:100330006F746174696F6E206661696C65640A0030
:1003400000A1C86F6C65645F696E697420636D6439
:10035000207365742031206661696C65640A000051
:10036000AED580A81FD300408D14200000000000EF
:10037000000000002A2B2800000000000000000000
:100380000000000000000029000000002C1E3420A6
:10039000212224342627252E362D3738271E1F20CC
:1003A0002122232425263333362E37381F04050611
:1003B0000708090A0B0C0D0E0F1011121314151655
:1003C0001718191A1B1C1D2F3130232D3504050653
:1003D0000708090A0B0C0D0E0F1011121314151635
:1003E0001718191A1B1C1D2F3130354C0000000046
:1003F00000000000000000000000000000000000FD
:1004000000000000000000000000000000000000EC
:100410007E0F00D4FFFFFFC7000000780A002530E0
:10042000325820006B6579626F6172645F7265702B
:100430006F72743A20005B735D005B575D005B5325
:100440005D005B525D005B445D005B435D00120339
:100450007400670068006F00730074003400380097
:1004600000001203680076007500690074007300D4
:100470006D00650000000403090409027B0004010B
:1004800000A0FA0904000001030101000921110183
:100490000001224000070581030800010904010052
:1004A00002030000000921110100012222000705BA
:1004B0008203200001070503032000010904020054
:1004C0000103000000092111010001227B00070542
:1004D0008403200001090403000203000000092135
:1004E00011010001222200070585032000010705F4
:1004F00005032000011201000200000008EDFE00CB
:10050000000001010200010631FF0974A101097513
:10051000150026FF00952075088102097615002632
:10052000FF00952075089102C00660FF0961A101D6
:100530000962150026FF00952075088102096315E0
:100540000026FF00952075089102C005010902A14F
:100550000185020901A100050919012908150025D5
:1005600001950875018102050109300931158125C0
:100570007F95027508810609381581257F950175DB
:10058000088106050C0A38021581257F950175083A
:100590008106C0C005010980A101850319012AB7A0
:1005A00000150126B700950175108100C0050C09E2
:1005B00001A101850419012AA002150126A00295B6
:1005C0000175108100C005010906A101050719E0A8
:1005D00029E7150025019508750181029501750827
:1005E00081010507190029FF150026FF00950675F2
:1005F00008810005081901290595057501910295E5
:100600000175039101C011241FBECFEFDAE0DEBFF8
:10061000CDBF04B603FE18C08091CA049091CB04EC
:10062000A091CC04B091CD048730904BA740B04B43
:1006300059F41092CA041092CB041092CC04109278
:10064000CD04E0E0F8E3099511E0A0E0B1E0EEE3CD
:10065000F6E502C005900D92A23CB107D9F724E05F
:10066000A2ECB1E001C01D92AA3CB207E1F70E94E2
:10067000C9130C94CB2A0C940000FF93EF93E091E4
:10068000C201F091C301309709F00995EF91FF91F4
:100690000895FC018591803011F0EFDFFBCF0895C4
:1006A000FF27E0E230E247FF0CC0419597FF09C009
:1006B000EDE26095709580959095611D711D811D8D
:1006C000911D27FF02C0219530E350E2AA27660F53
:1006D000771F881F991FAA1FA41710F0A41B6395EA
:1006E0005A95A9F7AA3008F0A95FA05DAF93F395DA
:1006F000611571058105910541F7ED3211F4EF9314
:10070000F395F21718F43F93F395FBCF8F91B5DF74
:10071000FA95E1F70895E991F9918591803021F0FA
:10072000853219F0AADFF9CF089520E0E8945591B9
:100730005532C1F3503311F4689455915A3348F44B
:10074000505390F3220F022E220F220F200D250F5F
:10075000F4CF0EF4219589919991533619F35337BB
:1007600029F1533559F1BC0188279927E8945C3663
:1007700021F48991999168945591543639F446EF52
:100780007EF077FF0DC08FEF9FEF0AC055374AE02C
:1007900039F0583540E121F0523642E009F0089531
:1007A000FF93EF937DDFEF91FF91B7CFFF93EF932F
:1007B000FC0181918030B9F360DFFBCFFF93EF93B1
:1007C00068DFF1CFDF93CF93CDB7DEB72596A3DFF8
:1007D000CF91DF910895F894E82FE295EF70F0E063
:1007E00031A1282F2F7081E090E001C0880F2A9559
:1007F000EAF7382B31A392A18095892382A37894BC
:100800000895F894E82FE295EF70F0E031A1282FD9
:100810002F7081E090E001C0880F2A95EAF7982FA9
:100820009095932391A392A1892B82A37894089504
:100830000F931F93CF93DF93C6E2D1E089918F3F4F
:1008400011F00E94010481E0CB32D807B9F7CAE168
:10085000D1E006E211E089918F3F11F00E9401047E
:100860000C171D07C1F7DF91CF911F910F910895CC
:100870004F925F926F927F929F92AF92BF92CF9270
:10088000DF92EF92FF920F931F93CF93DF937C0140
:100890005C012AE0A20EB11C8C01B6E2CB2EB1E0C5
:1008A000DB2EC0E0D6E26D2ED1E07D2ED601DD91AB
:1008B0006D01912CDF3FB9F18D2F0E94EB0300C039
:1008C00000C0F80160817181EAE1F1E0CB0141E013
:1008D00050E091902FEF921691F0A92DA295AF7054
:1008E000B0E090962C9130E0A92DAF7002C0359504
:1008F0002795AA95E2F720FD7EC0842B952B440F07
:10090000551F6E167F0629F7912C6817790729F075
:10091000D8018D939C93992493948D2F0E94010468
:10092000E0EAEA95F1F7C9290E5F1F4F0A151B058A
:1009300009F0BCCF2AE1C22E21E0D22E36E2632E8E
:1009400031E0732E00E410E0F601D1916F01912C9B
:10095000DF3FC9F18D2F0E94EB0300C000C0F701FB
:1009600096E2492E91E0592E912CA8014095509580
:10097000D2016D912D016F3FE1F020813181862FF1
:1009800082958F7090E0DC0190968C9190E06F7072
:1009900002C0959587956A95E2F780FD32C0C9013E
:1009A000802B912B2817390721F09183808399247C
:1009B00093943296EA15FB05D9F68D2F0E94010417
:1009C000B0EABA95F1F7C929000F111F6C147D0424
:1009D00009F0BACF8C2FDF91CF911F910F91FF902B
:1009E000EF90DF90CF90BF90AF909F907F906F90EF
:1009F0005F904F9008959A0120953095822393231C
:100A00007ECFCA0182239323CDCF82E00895823026
:100A1000B8F46530A8F44C3098F450E09CE0699F3D
:100A2000400D511D1124FA019CE3899FE00DF11D39
:100A30001124EE0FFF1FE455FF4F85919491089507
:100A400080E090E0089581E0089581E008950E949B
:100A50002505089508950E942A050895A5E0B0E0AF
:100A6000E4E3F5E00C944B2A49835A833091C901A1
:100A700089819A81311119C0662399F0222389F066
:100A80000E94230B182F682F89819A810E94FF0AE8
:100A900069817A81812F0E94BF112596E3E00C9431
:100AA000672A0E94110B182FF3CF0E94230B698134
:100AB0007A81F1CFFC01262F4081518162817381BF
:100AC00084810E942E05089581E00895CF93DF93DD
:100AD000EC0160E00E945A05BE010E942B05DF91E7
:100AE000CF910895E1E0F0E0DF0102C0AA0FBB1F43
:100AF0006A95E2F7BD01DF0102C0AA0FBB1F4A954C
:100B0000E2F76A2B01C0EE0F2A95EAF7962F982399
:100B1000961302C08E2B0895E0958E230895242FFE
:100B2000462F682F8091E2010E9472050E94610A9F
:100B300008950E94EE1208950E94F21208950895F9
:100B40000E94F5090E949F052FEF84E39CE021504D
:100B500080409040E1F700C0000008950E94A00589
:100B60000E94FD2108950E94A0050E94212208955F
:100B70000F931F93CF93DF938C0161E00E945A057E
:100B8000EC01B8010E944217811106C080E0DF919C
:100B9000CF911F910F910895B801CE010E942705B2
:100BA0008823A1F3B801CE010E94CA1E882371F3E5
:100BB000B801CE010E94691A882341F3B801CE0121
:100BC0000E943C1E882311F3F8018281882369F07A
:100BD000C330FCE7DF0781F160F4C130ECE7DE07EA
:100BE00069F1C0F4C115DC4791F0C8010E942305EA
:100BF000CECFCB35ECE7DE0739F1CC35FCE7DF07AC
:100C000001F1CA35DC4789F70E94330FEECF0E940D
:100C1000AE05BCCF90914802892F8E7F90FF8160F6
:100C20008093480280FF05C08EEA91E00E9449034C
:100C3000ADCF8CE991E0FACF0E943B0F0E94B30543
:100C4000A5CF0E94290FD1CF0E94370FCECF0E948F
:100C50002E210E9478060E941B1A08950E947C068D
:100C60000E9433210895829590E09C01220F331F4A
:100C7000220F331F2C7C95958795959587958373C7
:100C8000282B30E0C901880F991F8A7A359527955E
:100C90002575822B0895CF93DF93D92F0E943306B9
:100CA000C82F8D2F0E9433069C2FDF91CF9108957E
:100CB00008950E945806089581E008950895CF93FD
:100CC000DF93D82F0E945C06C82F882319F08D2F40
:100CD0000E945E068C2FDF91CF9108950895CF93E7
:100CE000C82F0E9459068C2F0E945F06CF9108954D
:100CF00080E00E946F0608950E9404200E946F0603
:100D00000895CF930E940420C82F8091C4018C17AE
:100D100089F1C093C4010E94BE216093C501709304
:100D2000C6018093C7019093C8018091480282FF59
:100D30001EC080FF1CC086EC91E00E944903809198
:100D4000480280FF14C01F92CF9381EC91E09F93E3
:100D50008F930E94E203809148020F900F900F90B2
:100D60000F9080FF04C08FEB91E00E9449038C2F0D
:100D70000E946F06CF910895ABE0B0E0E2ECF6E0A0
:100D80000C944C2A4F83588769877A878B87611127
:100D90000E94610E1E821D8285E0FE013796DE01F3
:100DA000119601900D928A95E1F78C819D81892B96
:100DB00061F449815A816B817C818D819E810E9481
:100DC0008A0D2B96E2E00C94682A89819A81892306
:100DD0008F3F79F3CE0101960E9464058111E9CF1E
:100DE000F0CFFC01808191810E94500B0895662311
:100DF00029F00E944D140E94201508950E94A71406
:100E0000FACFCF93C82F8823B9F08CEF8C0F813A9B
:100E1000A8F46C2F80910001909101010E94BF20E5
:100E2000882329F08C2F0E94210E0E94820E8C2F85
:100E30000E94190E0E94820ECF91089580E28C0FBD
:100E4000883048F4C77081E001C0880FCA95EAF77E
:100E50000E94440EEFCFEBE5EC0FE33040F4F0E0FE
:100E6000E35AFE4F808190E00E946320E5CFE8E5E1
:100E7000EC0FE93150F4F0E0EE0FFF1FE55DFE4F9F
:100E8000808191810E948820D7CF83E38C0F8331AA
:100E900098F661E08C2F0E94F706CECF882381F16F
:100EA0009CEF980F913A28F40E94210E0E94820E26
:100EB000089590E2980F983050F4877091E001C047
:100EC000990F8A95EAF7892F0E944A0EEFCF9BE58A
:100ED000980F933028F490E080E00E9463200895FA
:100EE00098E5980F993128F490E080E00E948820DE
:100EF000089593E3980F933118F460E00E94F70689
:100F000008951F93CF93DF93182FEB010E940107E1
:100F1000209739F4812F0E944E07DF91CF911F91C6
:100F200008958FE99FE00197F1F700C00000219735
:100F3000EFCF70E060E0893311F460E570E00E946B
:100F400081070895882321F00E94440E0E94820E9A
:100F50000895882321F00E944A0E0E94820E08956F
:100F6000B0E0A0E0E6EBF7E00C94452A6C01D62F48
:100F7000C72FFC011281F580F2949FE0F9220E94B4
:100F80003A0EE82E8823B9F0E12E1123A1F08C2F20
:100F9000807F803421F080E28D0F8830D0F0809106
:100FA0009E0282FF16C082E00E94E50E0E943A0E69
:100FB00091E0E82EE926BC2EB2948FE0B822FBE047
:100FC000FB1508F468C0EB2DF0E0E353F54D0C94ED
:100FD0002F2AE12CF0CF0C2F0F70C07F11F002955B
:100FE000007F112399F0002359F080E28D0F8830A3
:100FF00010F0D11107C0802F0E94440E0E94820E73
:101000008D2F41C0802F0E94540EF8CF8D2F0E944B
:101010004E07002309F43FC080E28D0F883010F0A6
:10102000D11104C0802F0E944A0E03C0802F0E945D
:101030005A0E0E94820E2FC00C2F0F70C07FC0323C
:1010400011F00295007FDD2381F0D13009F468C0F2
:10105000112309F472C0FF2009F468C0F6018581EC
:1010600080FFCECF8F70858361C080919E0282FD0C
:1010700033C0112359F0002329F0802F0E94440E21
:101080000E94820E80E00E94010705C080E00E945D
:101090004E070111C7CFEB2DE850FF0B349720F41A
:1010A0000E9404200E946F06EE2089F00E94360EF6
:1010B00080FD0DC0F60112820E94300E0E94730A5C
:1010C000C6010E94B5090E94300E0E947F0ACDB76A
:1010D000DEB7E9E00C94612A112389F0F11006C013
:1010E0000E94640E802B0E94A207D5CF21E0F2124D
:1010F000F7CF0E94640E802B0E946B0ECCCFF110B4
:1011000006C00E94780E802F0E94A907C4CF31E04C
:10111000F31609F2802F0E94A9070E94780EBBCF18
:10112000112331F085E08F1508F4B5CF802FDBCF88
:1011300094E09F1508F4AFCFE6CFFF2021F3D93319
:1011400049F4FFEF27EE33E0F15020403040E1F763
:1011500000C000008D2F0E944E079DCF8C2F8695DA
:101160008695837069F0813009F095CF8D2F9C2F83
:101170009370111102C080E090E00E9488208BCF14
:101180008D2F9C2F9370111102C080E090E00E947F
:10119000632081CF612F8D2F0E94F7067CCF8C2F8B
:1011A000837079F5111177CF4D2F42954695477091
:1011B000440F440F8D2F8F70042E01C0880F0A94A6
:1011C000EAF72D2F2071D4FF07C02FE030E001C0D7
:1011D000220F4A95EAF72095C695C695C370822BD3
:1011E000C23049F058F4C13019F00E944F0A53CF71
:1011F0000E94490A50CF0E94550A4DCF0E94460ACC
:101200004ACF8695112311F08C2F8170882309F421
:1012100042CF4D2F429546954770440F440F8D2F76
:101220008F70042E01C0880F0A94EAF72D2F2071C9
:10123000D4FF07C02FE030E001C0220F4A95EAF743
:101240002095C695C695C370822BC23049F058F4DC
:10125000C13019F00E949E0A1ECF0E94980A1BCF2F
:101260000E94A40A18CF0E94610A15CFCF701123E3
:1012700029F08C2F0E94730A8D2F35CF8D2F0E945D
:10128000A9078C2F0E947F0A06CFD23F51F160F44C
:10129000D03FB9F0D13F81F0112309F449C0F110DA
:1012A000AFCE8C2F8F7121C0D33F11F1D43FA1F766
:1012B00080919E0282FD26C08C2F8F71112311F325
:1012C00014C0112349F084E08F1508F4E4CE8C2F6C
:1012D0008F710E948C0ADFCE95E09F1508F4DBCE5B
:1012E000F6CF8C2F8F711111CDCF0E94730AD3CE00
:1012F000112329F08C2F8F710E946A0ACCCE0E9494
:10130000660AC9CE112349F0CF718C2F0E94730A4F
:1013100063E08C2F0E94C70EBECE81E00E94E50ED6
:10132000E1E0EF1508F0B7CE82E00E94E50EB3CE03
:10133000F11005CF8C2F8F71A5CF0F931F93CF93F3
:10134000DF93EC01688179818A810E945B0B8C01BB
:101350000E94AA0A0E94450AB801CE010E94B00765
:10136000DF91CF911F910F910895CF93DF93EC01FF
:101370008B819C81892B29F08881998189238F3FDA
:1013800051F4DF91CF910895CE010E949D09CE01C5
:101390000E946605F6CFCE010E94B8058111F4CFF8
:1013A0000E943A0E882369F38A81882351F3809141
:1013B0009E0282FFE6CF82E00E94E50EE2CF90E03F
:1013C00080E00E94632090E080E00E9488200E94DC
:1013D000610E0E94820E0E94BE150E942015089583
:1013E0000E94290E0E94DF0908950E94510E0E945A
:1013F000F009089592959F70963091F058F4925F9D
:101400009F70923058F4803F19F030F4883E30F4E9
:1014100081E008959A5FF4CF843FD1F380E008958E
:10142000883EB0F3813FD1F7F3CFFC0183819481F3
:10143000892B29F08081918189238F3F11F480E0ED
:101440000895808191810E94500B0E94FA090895AD
:10145000A5E0B0E0EEE2FAE00C944C2A2596E2E03A
:101460000C94682AA6E0B0E0E8E3FAE00C944C2A79
:101470002696E2E00C94682A08950E943C0A08959A
:101480000E943D0A8093E301089508950E94400A56
:1014900008959091E301892B0E94400A089590914C
:1014A000E30189230E94400A08959091E30189276E
:1014B0000E94400A08950E943C0A08950E945B0A17
:1014C00008950E945E0A8093E201089580E00E94E0
:1014D000610A089591E001C0990F8A95EAF7892F72
:1014E0000E94610A089521E030E001C0220F8A9530
:1014F000EAF78091E201822B0E94610A089521E0BF
:1015000030E001C0220F8A95EAF720958091E20130
:1015100082230E94610A089521E030E001C0220F79
:101520008A95EAF78091E20182270E94610A089574
:101530009091E201892B0E94610A08959091E20145
:1015400089230E94610A08959091E20189270E94EF
:10155000610A08950895262F277091E001C0990F20
:101560002A95EAF723E0769567952A95E1F7FB013E
:10157000EE0FFF1FE60FF71FE40FF51F50E040E0EE
:10158000682F70E08191DF0111979B01042E02C04A
:10159000369527950A94E2F721702195282729236B
:1015A00028272C934F5F5F4F4330510559F708951B
:1015B000A82FA77023E0969587952A95E1F7FC015F
:1015C000EE0FFF1FE80FF91FE60FF71F50E040E096
:1015D00080E0219130E00A2E02C0369527950A94CA
:1015E000E2F721703327042E01C0220F0A94EAF794
:1015F000822B4F5F5F4F4330510559F70895262FD7
:10160000953070F48C3060F4682F70E08CE0989F17
:10161000600D711D11244AEC51E0822F0E94AB0A2B
:101620000895292F953068F48C3058F490E06AECD6
:1016300071E03CE0239F800D911D11240E94D80A87
:10164000089580E00895CF92DF92FF920F931F9349
:10165000CF93DF936C010091E2018091E301082BAD
:10166000C7E0D0E010E0FC2EC8010C2E02C095951A
:1016700087950A94E2F780FD0CC02197A0F7F12C22
:101680008F2DDF91CF911F910F91FF90DF90CF9021
:101690000895B6018C2F0E94CB11019771F3F0CF02
:1016A000CF93DF93EC010E94230BBE010E94CB116C
:1016B000DF91CF9108951F93CF93DF93EB0190912A
:1016C000C901992339F0CB010E94500BDF91CF91D2
:1016D0001F910895882369F0CB010E94230B182FD6
:1016E000682FCE010E94FF0ABE01812F0E94CB11FC
:1016F000EDCFCB010E94110B182FF6CF1F93CF9384
:10170000DF93C091E40116E08091E5018C1304C0E1
:10171000DF91CF911F910895D0E01C9FF0011D9F94
:10172000F00D1124EA51FE4F408151816281738195
:10173000848195810E94320A2196C770E5CF40913D
:10174000160250911702609118027091190280914F
:101750001A0290911B020E94320A08951F93CF93A0
:10176000DF9380911B02807F09F049C080911802AD
:10177000882309F444C08091E401C091E50160919F
:10178000160270911702A0911902B0911A02D62F79
:10179000D72316E0C81799F190E0109711F0DF3FBA
:1017A00019F401968770F6CF189F9001199F300D9C
:1017B0001124F901EA51FE4F41814713F2CF4081D4
:1017C0004613EFCF42814111ECCF438154814A1B34
:1017D0005B0B483C510528F780911B028F7080619C
:1017E00080931B02F901E551FE4F80818F7080616B
:1017F000808386E192E00E94B5090E947E0BDF9112
:10180000CF911F910895A1E1B0E0E9E0FCE00C94D4
:10181000442A8C0185E0F801DE011D9601900D92AD
:101820008A95E1F7F801E28086E1C82E82E0D82EA1
:101830006091190270911A026115710509F44EC187
:101840009091160220911702892F82238F3F09F46D
:1018500045C140815181A380B480F0901802F50108
:10186000E61BF70BFF2009F4EAC080911B02382F1A
:10187000307FE83CF10508F0A3C031116DC0FE2CAB
:10188000251316C0941314C0E11012C08F7080612C
:1018900080931B020E949F0BC6010E94B509809194
:1018A0001B02F80185838F2D6196EAE00C94602A73
:1018B000A114B10429F0842F85238F3F09F027C19B
:1018C00080E0F82FF170DF2E80FF3CC08091E401B2
:1018D0002091E50136E0821315C04D875E878D8526
:1018E0009E850E94500B292F22952F702230F0F0F8
:1018F000243018F59F70F1F0F8019581907FD1F4B4
:10190000D12C1EC090E0389FF001399FF00D1124BA
:10191000EA51FE4F6181651306C06081641303C004
:101920006281E6120FC001968770D5CF9F7011F0CB
:10193000882331F3805E883018F3C8010E94B5090E
:10194000FD2CB1CFEE2009F4AECF80911B02816057
:1019500080931B02F12CA7CF251306C0941304C05B
:10196000F801EE2009F487C0C8010E94150A8823F7
:1019700019F1EE2009F180911B02803270F0209164
:1019800016023091170238872F831986BB86AA86E4
:101990008C87CE0107960E94B50986E0F801A6E182
:1019A000B2E001900D928A95E1F70E94AE0B0E9481
:1019B0009F0BFF24F39477CFC8010E94B509F9CF9C
:1019C000311113C07A2DB98AA88A6E2D89890E9497
:1019D000280A86E192E00E94B50986E0F60111929C
:1019E0008A95E9F70E949F0BB5CF25130FC094137A
:1019F0000DC0E1100BC0F8018583C8010E94B50934
:101A000086E0F60111928A95E9F74DCFC8010E9450
:101A1000150A882389F2EE2079F280911B02803228
:101A200008F4BBCF20911602309117023A83298324
:101A30001B82BD82AC828E83CE010196ACCFE83C86
:101A4000F10508F03EC0FE2CEE2009F4B5CF2513B9
:101A50002AC0941328C080911B0280FD1BC0982FC0
:101A6000907FC1F0F8018583903F31F0982F907FEF
:101A7000905F8F70892B8583C8010E94B50986E02D
:101A8000F801A6E1B2E001900D928A95E1F70E947B
:101A90009F0B09CF86E0F801A6E1B2E001900D921C
:101AA0008A95E1F700CFC8010E94150A811175CF10
:101AB00080911B02816080931B02C8010E94B509BE
:101AC000F2CE7A2DB98AA88A6E2D89890E94280AB9
:101AD00086E0F60111928A95E9F7D9CFEE2009F454
:101AE0006BCFC8010E94150AF82E882309F464CF31
:101AF00086E0F801A6E1B2E001900D928A95E1F747
:101B000086E192E00E94F1060E94AE0BC0CF81E018
:101B10008E25D7CEACE0B0E0E0E9FDE00C944B2A96
:101B20004F83588769877A878B879C87CE01079672
:101B30000E94030C882369F08A859B85892B39F0E4
:101B40004F815885842F85238F3F09F06BC016E0A5
:101B50005FC086E0FE013796DE01119601900D927E
:101B60008A95E1F78A859B85892B89F38F819885F2
:101B700089238F3F61F32091E50130E0C90101968F
:101B8000877099274091E4014817190671F40E9463
:101B9000F5091092E5011092E40186E0E6E1F2E039
:101BA000DF011D928A95E9F7D2CF96E0929FD0018E
:101BB000939FB00D1124AA51BE4FFE0131960190A2
:101BC0000D929A95E1F78093E5010E947E0BBFCFBD
:101BD000819FC00111248A519E4F0E94030C8823CB
:101BE000E9F0E091E4011E9FF0011124EA51FE4F5B
:101BF0004081518162817381848195810E94320A82
:101C00008091E40190E00196877099278093E40128
:101C10008091E4019091E5018913DACF2C96E3E0FD
:101C20000C94672A69857A858B859C850E94320A87
:101C30008ECF682F80910001909101010E94F520C4
:101C40000895682F80910001909101010E94F82071
:101C5000089580910001909101010E94FB20089558
:101C6000809124028595859585950895809124021B
:101C70008770089590912402977081E009F480E0C4
:101C8000089580912F02089590912F02892B8093BF
:101C90002F020895809590912F02982390932F0200
:101CA000089510922F02089590912E02892B80930F
:101CB0002E020895809590912E02982390932E02E3
:101CC000089510922E020895809125020895089596
:101CD0000E94670E089590919E0292FF08C0909115
:101CE0002502981721F0809325020E94680E08951E
:101CF00080912502882329F01092250280E00E941D
:101D0000680E0895CF93DF93E0910001F0910101F7
:101D100080912F028083E0910001F0910101808188
:101D200090912E02892B808390912502992381F036
:101D3000E0910001F09101018081892B80838091E5
:101D40000001909101010E94AD2081110E94780E46
:101D5000C0910001D091010148E050E06CE172E0D7
:101D6000CE010E94732A892B59F088E0FE01ACE174
:101D7000B2E001900D928A95E1F7CE010E94112008
:101D8000DF91CF91089508950E94C30E0895909118
:101D90009E0292FF11C098E0899F90011124622B4E
:101DA000609324020E94730A809124028595859590
:101DB00085950E94C40E08950E94730A089510929A
:101DC000240280E00E94C40E089590912402809520
:101DD000892380932402282F277091F4282F082E1E
:101DE000000C330B9217130659F090919E0292FF4C
:101DF00007C08595859585950E947F0A0E94DF0E14
:101E00000895CF93C82F80919E0282FB992790F965
:101E10009C17E9F0C0FB82F980939E0280919D029D
:101E200090919E020E945D0F82E00E94E50E8091DB
:101E3000480280FF0CC01F92CF9381ED91E09F93E9
:101E40008F930E94E2030F900F900F900F90CF910D
:101E5000089580919E0282FB882780F991E089276E
:101E60000E94010F089581E00E94010F089580E013
:101E70000E94010F08956FEF7FEF90E080E00E94D5
:101E8000B52A089590E080E00E94912A873E9E4FF7
:101E900019F40E94DC16089580E0089582E090E035
:101EA0000E94892A089583E090E00E94892A08957B
:101EB00084E090E00E94912A0895BC0184E090E0C3
:101EC0000E94B52A0895AB01BC018FE090E00E940A
:101ED000A92A0895AB01BC0183E190E00E94A92AE0
:101EE000089560E070E0CB010E946A0F089560E001
:101EF00070E0CB010E94630F0E94710F089567EE9E
:101F00007EEF90E080E00E94B52A60E082E090E001
:101F10000E94972A60E083E090E00E94972A109246
:101F2000E30160E074E184E090E00E94B52A60E0A3
:101F300086E090E00E94972A6FEF87E090E00E9491
:101F4000972A40E050E0BA0188E090E00E94A92A78
:101F500060E08DE090E00E94972A40E050E0BA01F6
:101F600088E190E00E94A92A60E087E190E00E9469
:101F7000972A40E050E0BA018CE190E00E94A92A43
:101F800070E060E080E290E00E94B52A40E050E01E
:101F9000BA0188E190E00E94A92A80E00E94F5162B
:101FA0000E9424170E94770F08950E947F0F0895C2
:101FB000682F8EE090E00E94972A08950E94BE212B
:101FC00060934402709345028093460290934702C7
:101FD00060934002709341028093420290934302C7
:101FE00008950E94BE21609344027093450280933D
:101FF00046029093470260933C0270933D028093A7
:102000003E0290933F020895089508950E9405109E
:10201000089508950E94091008958BED93E20E949F
:10202000FA1F0E9404100E940610089581E008958E
:102030000E9416100895089508950E941B100E9492
:102040001C1008950E94D2120E946E0608950E94EC
:10205000A9210E9434170E94141C0E943F130E9461
:10206000221080E00E948A180E940A100895AAE0B7
:10207000B0E0EDE3F0E10C94412A0E94681322E302
:10208000822E22E0922E640110E0F601E190F190A0
:102090006F01812F0E94F5121F5F153009F44AC0AD
:1020A000E816F90691F38091480281FD0E94FE1224
:1020B0000E941810782E10E0812F0E94F5127C01EA
:1020C000F401A190B1904F018A159B0561F1A826FA
:1020D000BF2400E0CC24C394D12CC5018C219D21C8
:1020E000892BC1F07720B1F00E831F8321E0C70157
:1020F0008C219D21892B09F420E028870E94B221A0
:102100008160782F9A8789874E815F8168858A856B
:102110000E94BC060F5FCC0CDD1C0C30F1F6F40104
:102120003297F182E0821F5F153031F60E94DE0F98
:1021300011E023C0E816F90609F0B5CF0E94B221DC
:102140008C01809130029091310208171907A1F09B
:102150008FEF89838A831B820E94B2218160782F4E
:102160009D838C8349815A816B818D810E94BC063D
:10217000109331020093300210E00E94321C082FAD
:1021800081110E94F10F0E943F1A111101C001112B
:102190000E94F9180E94E0150E9481062A96EDE03F
:1021A0000C945D2ACF93DF930E94D011EC0181152E
:1021B00020E59207D0F5811530E4930708F086C03A
:1021C000803E910518F58D3C910508F07DC0883A58
:1021D000910570F4853A910508F06EC08130910543
:1021E00001F10097F1F00497E0F4D0E0C0E019C0ED
:1021F000813C9105D0F7C85AD0E0CC0FDD1FC05A02
:10220000DE4F0990D881C02DD4640BC08115904257
:1022100008F0A8C0C11581E0D80718F4C83ED10560
:1022200020F7CE01DF91CF910895803622E5920705
:1022300010F5803432E5930708F052C080329245A1
:1022400008F047C0C11582E5D80708F47DC02C2FDF
:102250002695269540E2249F900111248C2F8370AF
:10226000C1E0D0E002C0CC0FDD1F8A95E2F7C22B9F
:10227000D32BDD68D6CF803A22E5920760F4803810
:1022800032E5930708F441C0CF71D0E0DC2FCC27B2
:10229000C46FD06AC6CF803C42E5940708F449C0B9
:1022A000C03E82E5D80708F0A0CFDC2FCC27CC2792
:1022B000DF71C06FD06AB5CFC55AD0E0CE56DE4FC1
:1022C000C881D0E0D064ADCFD065ABCFDF70D06A2D
:1022D000A8CFCF71D0E0DC2FCC27C16FD06AA1CFBF
:1022E000282F26952695277080E2289F900111249B
:1022F0008C2F8370C1E0D0E002C0CC0FDD1F8A9527
:10230000E2F7C22BD32BDC688CCF282F269526959D
:10231000277040E2249F900111248370C1E0D0E037
:1023200002C0CC0FDD1F8A95E2F7C22BD32BDA68EF
:1023300078CF8F710E947212C82FD0E0DC2FCC278B
:10234000CC27DF71D0626DCF8C2F8F710E947212FB
:1023500035E0D695C7953A95E1F7CF709C2FEC0103
:10236000D0695FCF8D2F8F710E94721290E0982FED
:10237000882788279F719C012C2BE901E3CF462FEA
:10238000753030F46C3020F4672F0E94541D08958E
:1023900090E080E008950E94BF110E94D21008953D
:1023A00082389105B9F1B0F48133910509F47DC00B
:1023B00048F48932910509F46DC08A32910509F417
:1023C0007BC008958533910509F45FC08933910579
:1023D00009F10895833E9105D9F138F4803E9105C5
:1023E00029F1823E910579F10895863E9105D9F152
:1023F000873E910509F43EC0843E910541F5209148
:102400009E0221FF24C080919D0284FD19C087EEA9
:1024100090E0089520919D02237009F05AC0209108
:102420009E0223FF14C089E290E0089520919D024E
:1024300020FD38C030919E0230FF09C024FF43C008
:1024400090E080E0089520919D0222FDF7CF08954D
:1024500020919D0222FD3AC030919E0230FD39C08C
:1024600024FFF5CFEDCF20919D0223FFF0CF24FD77
:10247000E7CFCDCF20919D0223FD2EC030919E024B
:1024800031FFEECF84EE90E0089520919D0225FF6C
:10249000DECFC9CF20919D0225FD21C020919E0253
:1024A00023FFD5CF89E390E0D2CF20919D0226FF74
:1024B000CECF8AE290E0089520919D0226FFC7CFFB
:1024C00081E390E0089583EE90E0089582EE90E03D
:1024D000089580EE90E0089586EE90E0089585E3FB
:1024E00090E0089590919D0292FF06C0282F2871D8
:1024F0002830F9F4877F846093FF06C0282F287165
:102500002831F1F4877E846120919E0220FF06C06D
:10251000382F38713830D9F4877F816021FF06C0A9
:10252000282F28712831D1F4877E816194FD877E20
:102530000895282F24712430F9F68B7F8860DCCF32
:10254000282F2471243101F78B7E8861DDCF382F4D
:102550003171313019F78E7F8860E0CF282F2171DB
:10256000213121F78E7E8861E1CF0E943B0F0895D3
:102570000E9468132FEF86E791E021508040904041
:10258000E1F700C000000E94681380E00E94F5128D
:1025900080FF04C00E94B5120E94FD2108950E9490
:1025A000B81208950E94420F811102C00E94D50FF7
:1025B0000E944E0F809348020E94580F90939E02F3
:1025C00080939D020E94CF120E94530F0E94460AE0
:1025D0008091E2010E945E0A089508950E94ED1222
:1025E000089508950E94F1120895E82FF0E0EE0F8B
:1025F000FF1FE755FD4F808191810895B0E0A0E075
:10260000E4E0F3E10C94462A86EF91E00E9449034E
:1026100089EAE82E82E0F82ED0E0C0E091EFC92EE2
:1026200091E0D92E08EE11E0DF93CF93DF92CF92A5
:102630000E94E2038EEE91E00E944903F70181912E
:1026400091917F010E944B069F938F931F930F934D
:102650000E94E20386EE91E00E94490321968DB725
:102660009EB708960FB6F8949EBF0FBE8DBFC530BB
:10267000D105D1F6CDB7DEB7E8E00C94622A0E940E
:102680001804AFE9B2E011961C921E92E9EAF2E05A
:102690001182108213961C921E921297138212823C
:1026A00015961C921E9214971582148217961C92EE
:1026B0001E9216971782168219961C921E921897D0
:1026C0001186108685E00E947B130E94990508956B
:1026D000CF938FE992E00E943804282F45E069EA01
:1026E00072E08FE992E00E947C13C82F0E949C0543
:1026F0008C2FCF9108950895CF92DF92EF92FF92A1
:102700001F93CF93DF936C017B01C42F222349F0E9
:1027100081E080934B020E94B22190934A02809301
:10272000490210914B0211110AC010E0812FDF9174
:10273000CF911F91FF90EF90DF90CF9008958091FF
:10274000490290914A020E94CA21059770F3D0E095
:10275000CC0FDD1FAE01B601C7010E94732A892B81
:1027600041F0AE01B601C7010E94802A10924B02CF
:10277000DDCF10E0FBCF0E9457240E9427100E945B
:10278000642408950E9469240E9437100E948724BF
:1027900008950E944B210E943D240E940D100E942A
:1027A000BB130E94C2130E941D10FBCF80915202E6
:1027B00080FF0DC06091070170E0660F771F6038E1
:1027C000710570F56115710569F1862F089581FF16
:1027D00007C06091070184E0689FB0011124EFCF2A
:1027E0006091070182FD0AC0809151028823A9F0FF
:1027F0002091060160910701821710F088E0ECCF6C
:10280000869FC001112433E0880F991F3A95E1F7A4
:10281000622F70E00E941B2AD2CF68E070E0D5CF13
:102820008FE7089581E008958091520280FF0CC0E7
:102830006091030170E075956795759567956115D1
:10284000710549F1862F089581FF06C0609103014B
:1028500070E075956795F3CF6091030182FD0BC021
:10286000909150029923A1F060910201809103019F
:10287000961738F0682F70E06038710500F38FE725
:102880000895899FC001112470E00E941B2AF4CF93
:1028900061E070E0D7CF81E008958D3C31F40E9473
:1028A000D61381958093560208958E3C19F40E94A8
:1028B000D613F8CF8F3C31F40E94D61381958093C4
:1028C00055020895803D19F40E94D613F8CF893D32
:1028D00029F40E9414148093570208958A3D21F42C
:1028E0000E9414148195F7CF8B3D31F40E9414148B
:1028F00081958093580208958C3D19F40E94141418
:10290000F8CF9FE2980F983070F4815D990B21E029
:1029100030E001C0220F8A95EAF780915402822BA1
:102920008093540208958D3D31F48091520281606C
:102930008093520208958E3D21F48091520282606C
:10294000F7CF8F3DB9F7809152028460F1CF40916B
:1029500055028D3C59F48091560287FF0DC01092AC
:10296000560241110BC01092510208C08E3C81F4F6
:102970008091560218169CF3442381F080915702EF
:1029800090915802892B09F05AC010925002089574
:102990008F3C49F447FFF0CF1092550280915602C8
:1029A0008111ECCFE0CF803D19F41416ACF3E4CFE5
:1029B00090915702893D29F41916F4F610925702A6
:1029C000DBCF8A3D19F497FFD7CFF8CF909158020B
:1029D0008B3D29F497FFD0CF10925802CDCF8C3D7C
:1029E00019F41916CCF3C8CF9FE2980F983090F4E1
:1029F000815D990B21E030E0B90102C0660F771FBD
:102A00008A95E2F7CB0180959091540289238093B7
:102A10005402B2CF8D3D31F4809152028E7F80936B
:102A20005202AACF8E3D21F4809152028D7FF7CFC2
:102A30008F3D09F0A1CF809152028B7FF0CF089596
:102A40008091480283FF7EC084E392E00E944903A4
:102A5000809154021F928F938FE292E09F938F9305
:102A60000E94E2038DE292E00E94490380915502A8
:102A7000282F082E000C330B3F938F938AE292E0AD
:102A80009F938F930E94E20388E292E00E944903A1
:102A900080915602282F082E000C330B3F938F9302
:102AA00085E292E09F938F930E94E20383E292E09B
:102AB0000E94490380915702282F082E000C330BE7
:102AC0003F938F9380E292E09F938F930E94E20363
:102AD0008EE192E00E94490380915802282F082E2F
:102AE000000C330B3F938F938BE192E09F938F9376
:102AF0000E94E20388E192E00E9449038091510222
:102B00001F928F9385E192E09F938F930E94E2033F
:102B100083E192E00E944903809152021F928F93B9
:102B200080E192E09F938F930E94E2038DE092E018
:102B30000E9449038DB79EB74C960FB6F8949EBF7E
:102B40000FBE8DBF0E94B2219C01909155028091D1
:102B50005602982B21F030934F0220934E02909111
:102B6000570280915802982B21F030934D02209308
:102B70004C0283E592E00E945520089586E0E3E54B
:102B8000F2E0DF011D928A95E9F71092510210924E
:102B90005002109252020895FC01828181110EC0F0
:102BA000838181110BC08481811108C091E08581EE
:102BB000811101C090E0892F8170089581E0FCCFE0
:102BC000A6E0B0E0E6EEF5E10C944B2A86E0E3E502
:102BD000F2E0DE01119601900D928A95E1F71092D4
:102BE00055021092560210925702109258028B8191
:102BF0009C81892B89F080914E0290914F020E9416
:102C0000CA21AC01909151029923C9F18091080128
:102C10008417150608F440C08D819E81892B91F0A0
:102C200080914C0290914D020E94CA21AC0190917A
:102C30005002992309F471C080910401841715068C
:102C400008F479C0BE016F5F7F4F83E592E00E9478
:102C50000221811105C083E592E00E94CC1581110B
:102C60000E94201586E0FE013196A3E5B2E00190B6
:102C70000D928A95E1F72696E3E00C94672A20915D
:102C800009018AE0289F900111242417350720F6B6
:102C90009F5F9093510202C09F3FD1F71B81112388
:102CA00059F00E94D6139FEF11160CF491E0899F02
:102CB000802D1124809355021C81112359F00E940C
:102CC000D6139FEF11160CF491E0899F802D1124EB
:102CD0008093560230915502332309F49DCF209101
:102CE0005602222309F498CF45EB3403C001112486
:102CF000992359F09093550245EB24039001112438
:102D0000332339F03093560287CF81E08093550208
:102D1000F3CF81E0809356027FCF209105018AE0B6
:102D2000289F900111242417350708F08BCF9F5F4F
:102D30009093500202C09F3FD1F71D81112359F09B
:102D40000E9414149FEF11160CF491E0899F802DBE
:102D50001124809357021E81112359F00E941414EC
:102D60009FEF11160CF491E0899F802D1124809320
:102D7000580230915702332309F464CF209158024E
:102D8000222309F45FCF45EB3403C00111249923BA
:102D900059F09093570245EB2403900111243323FB
:102DA00039F0309358024ECF81E080935702F3CF31
:102DB00081E08093580246CF82E290E00E94892A07
:102DC000833289F483E290E00E94892A843059F4A6
:102DD00084E290E00E94892A91E0873109F090E036
:102DE000892F8170089580E0FCCFCF93C82F6FEFBB
:102DF000811163E282E290E00E94972A6FEFC11195
:102E000064E083E290E00E94972A6FEFC11167E1CE
:102E100084E290E00E94972ACF910895089585E278
:102E200090E00E94892A682F70E090E080E0089589
:102E30000895CF93C62F0E9418176C2F85E290E05B
:102E40000E94972ACF91089580E00E94F51660E0D5
:102E500070E0CB010E9419170E94E01C0E94AF1D78
:102E600081E00E94F51608950E940E170E940F1728
:102E70000E9418170E94DC16811102C00E942417BC
:102E800008950895CF93FB01C281CC2309F19C01E1
:102E9000225037472031310520F582500E94BF1D56
:102EA000C0E08C2FCF91089581E00E94730A43E027
:102EB00062E081E00E948F05F3CF81E00E947F0AEB
:102EC00043E062E081E00E948F05EBCF82E0F6CF25
:102ED0008115F7E79F0789F381309747B9F3C1E080
:102EE000E0CF8115E7E79E07F9F281309747C9F6F1
:102EF00082E0DBCF2FEFFC01208308950E947A1738
:102F0000089580E00895EF92FF920F931F93CF935F
:102F1000DF93EC01062F0E948117811110C0E88118
:102F2000E150E331B8F4F0E0E752F54D0C942F2A6C
:102F300019828BE08A83602FCE010E947522CDB763
:102F4000DEB7E6E00C94642A89818230C1F028F46F
:102F5000813061F08FEF8883EECF833099F0843039
:102F6000C9F71A821B821C821D82E5CF0E94BE21F6
:102F70000E94352A6A837B838C839D83DCCF0E94E9
:102F80000F17F6CF7E0110E0812F0E94F512F70196
:102F9000928383831F5FF2E0EF0EF11C1530A1F7DF
:102FA000CACF8981823031F08530A1F68A810E94B2
:102FB0004117C1CF6A817B818C819D810E94352A16
:102FC0000E941917B8CF4B816A8189810E94A21C87
:102FD0009827892798279D838C83ADCF2C813D81AD
:102FE0003227232732274B816A8189810E94C41CA2
:102FF000A2CF0E94E01C9FCF602FCE010E947E17BF
:103000009ACF0E94601D898396CF0E94621D9827E7
:10301000892798279A8389838ECF6B8170E0898175
:103020009A81AE014C5F5F4F9827892798270E94AD
:10303000651D81CF6B8170E089819A81AE014C5F03
:103040005F4F9827892798270E948A1D74CF0E9476
:10305000AF1D71CF0E94901CD6CF6B8170E089812B
:103060009A81AE014C5F5F4F9827892798270E946D
:103070000C1D61CF6B8170E089819A81AE014C5F3C
:103080005F4F9827892798270E94301D54CFB0E0C2
:10309000A0E0EDE4F8E10C94462A6C017B0164E6C3
:1030A00070E088E70E94141FEC0197FD12C010E049
:1030B00000E0F601E00FF11F849164E670E00E94E9
:1030C000801FEC01892B29F40F5F1F4F0E151F0580
:1030D00081F70E94F61FCE01CDB7DEB7E8E00C9471
:1030E000622A08950E9471180895E3EBF2E080E0EF
:1030F00092E0DF019C011D9221503040E1F7F093F6
:10310000B804E093B7048FEF9FEF90937F02809312
:103110007E0208950E9471180E94721880937A02AC
:1031200080FD13C080E8809379020E940E1F6DE03D
:1031300070E08FE593E00E944718892B41F083E40B
:1031400093E00E94490380E0089580E2ECCF8091F3
:103150007A0263E070E081FD09C080E493E00E94A0
:103160004718892B61F08AE193E0EBCF87E193E088
:103170000E944718892B19F08FEF92E0E2CF6DE0A3
:1031800070E082EF92E00E944718892B19F08BEDD6
:1031900092E0D7CF0E94BE21605A75418F4F9F4F5A
:1031A0006093B3047093B4048093B5049093B60411
:1031B0000E94751881E080937D0280937C021092BA
:1031C0007B0208952091790236E0839FC00111248B
:1031D000629F800D911D1124811522E0920714F049
:1031E00090E080E08D549D4F9093B8048093B70495
:1031F000089580917D02811103C080917C02089521
:103200000E94BE21605A75418F4F9F4F6093B30457
:103210007093B4048093B5049093B60480917C02BB
:103220008111EBCF62E070E082E892E00E944718E3
:10323000892B29F08EE692E00E944903DECF81E0DF
:1032400080937C02DACFB0E0A0E0E9E2F9E10C94EF
:10325000402A80917E0290917F02892B09F4BDC0A3
:1032600080917D02882309F4B8C080917B0281118E
:10327000B4C00E94F91820917E0230917F0221157E
:10328000310509F4AAC080E041E050E0082F10E0C9
:10329000EA01082E02C0CC0FDD1F0A94E2F7BE013E
:1032A00062237323672B11F48F5FF0CF90917A0222
:1032B00090FF98C0880F880F880F80930C011092A0
:1032C0000F01895F80930D0183E08093100124E654
:1032D00030E047E050E06AE071E088E70E94AE1F0E
:1032E000892B09F0A0C0A80125E0440F551F2A959D
:1032F000E1F780917A0280FF87C0E9E5F2E080E2A1
:10330000DF011D928A95E9F709E911E085E9E82EC8
:1033100081E0F82E97E0992E88248394D801ED91CE
:103320008D01D7016D917D01640F752F711D6D5455
:103330007D4FF0E0E75AFD4F30E020E0792C721A23
:10334000A82C022E01C0AA0C0A94EAF76B0190E0A7
:10335000D6018D916D018A21A72DA91BA770BA2EC8
:103360000A2E000CBB0B682E01C0660CBA94EAF75B
:10337000B62CB195A195B109A770BB2701C0869560
:10338000AA95EAF7A62DA82B80818A2B80839F5FC0
:103390009830F1F62F5F3F4F31962830310571F6A6
:1033A00081E00D39180709F0B9CF04E610E020E2FA
:1033B00030E049E552E060E488E70E94CF1F892BA6
:1033C000B9F5C095D09580917E0290917F02C82377
:1033D000D923D0937F02C0937E02CDB7DEB7EEE053
:1033E0000C945C2A8295880F807680930C0198015A
:1033F000369527953695279520930F01815E80930A
:103400000D011092100163CF4D545D4F04E610E0A2
:1034100020E230E060E488E70E94CF1F892B89F228
:103420008FE992E002C088EB92E00E944903D5CF79
:1034300084E892E0FACF80917C0290917D02911114
:1034400003C091E089270895882389F062E070E045
:103450008CE692E00E944718892B39F087E592E0CC
:103460000E94490380917C02089510927C02809111
:103470007C02E7CF81E008950E943A1A08950F93E5
:103480001F9380917D02882309F160E080E00E9413
:10349000E2180E943C1A0E94231980917C02882322
:1034A000A9F00E94BE210091B3041091B4042091B0
:1034B000B5043091B604601B710B820B930B6F3F08
:1034C0007F4F8F4F9F4710F40E941B1A1F910F913F
:1034D0000895CF93DF93EC01FB018281882309F4E7
:1034E000D2C09E0130572332310508F0B2C00E948D
:1034F000580F90939E0280939D02FE01E150F04789
:10350000E232F10520F4E451F54D0C942F2A80911C
:103510009D02816080939D0293C080919E0288608D
:1035200080939E028DC080919D028260F3CF809136
:103530009D028460EFCF80919D028860EBCF8091E7
:103540009E028160EDCF80919E028260E9CF8091E2
:103550009D028061DFCF80919D028062DBCF8091F0
:103560009D028064D7CF0E94F50980919D028068FA
:10357000D1CF80919D028C60CDCF80919E028360DF
:10358000CFCF80919D028E7FC5CF80919E02877F95
:10359000C7CF80919D028D7FBDCF80919D028B7F93
:1035A000B9CF80919D02877FB5CF80919E028E7F9B
:1035B000B7CF80919E028D7FB3CF80919D028F7E89
:1035C000A9CF80919D028F7DA5CF80919D028F7B99
:1035D000A1CF0E94F50980919D028F779BCF8091AA
:1035E0009D02837F97CF80919E028C7F99CF80919F
:1035F0009D0282FB992790F921E0922790FB82F9A6
:1036000090FB83F987CF80919E02982F90959170BF
:103610008E7F892B90FB81F983CF90919D02892F1A
:103620008F7B96FF806476CF0E94F50990919D0272
:10363000892F97FB87F980586DCF81E00E94D80FC2
:1036400080919D0290919E020E945D0F0E94F5095B
:1036500080E0DF91CF91089580E0F0CF90919D02BE
:10366000892F8F7E94FF806155CF90919D02892F85
:103670008E7F90FF81604ECF90919E02892F877F31
:1036800093FF88604DCF81E0E4CFB0E0A0E0EBE4B1
:10369000FBE10C94472AE82FF0E0E459FC4FD4906A
:1036A000282F26952695269530E0F901E45FFB4FFB
:1036B0000491877010E0082E02C0159507950A94B2
:1036C000E2F701701127F901E450FC4FE490F12C6E
:1036D000082E02C0F594E7940A94E2F791E0E922FB
:1036E000FF24F901E451FC4FC491D0E002C0D5950C
:1036F000C7958A95E2F7C170DD270115110519F00C
:1037000081EE0E940107E114F10419F086EE0E9497
:1037100001078D2D0E949907E114F10419F086EE3E
:103720000E944E070115110519F081EE0E944E0707
:10373000CD2B19F08CE20E949907CDB7DEB7E7E0F8
:103740000C94632AEF92FF920F931F93CF93DF9312
:10375000EC01162F0AE08881882309F454C08130D7
:1037600009F04EC08981813099F47E0122E0E20E99
:10377000F11C8A810E949907E7012196812F8150CF
:1037800050F3EFE9FFE03197F1F700C00000F7CF09
:10379000823041F47E0182E0E80EF11C8A810E94B1
:1037A0000107EACF833041F47E01E2E0EE0EF11C26
:1037B0008A810E944E07E0CF843011F02196DDCF40
:1037C0002A81229690E080E0AE014F5F5F4F205348
:1037D000330B2A30310548F0019778F2EFE9FFE02A
:1037E0003197F1F700C00000F7CF089FB001099FA3
:1037F000700D1124C901860F971F2981EA01E4CFBA
:103800000E94451BBACFCDB7DEB7E6E00C94642A20
:103810008FE891E00197F1F700C00000089581E082
:1038200008950E940F1C089581E08093810284987E
:103830008C9A85988D9A0E94081C2091810243E8F9
:1038400052E0FA018E2F841B821708F008958FB181
:10385000829581707D9904C090E0892B8193F2CF8D
:1038600092E0FBCFB0E0A0E0E8E3FCE10C94462A54
:10387000F12CE12C84E0C82ED12C80918102F81625
:1038800030F08E2DCDB7DEB7E8E00C94622A0F2D14
:1038900010E0EFB1E295E1707D9940C080E08E2BA1
:1038A000D801AD57BD4FEC919E2F93709817A1F1A1
:1038B000EE0FEE0FE82BEC93EF70F0E0E356FE4FC7
:1038C000E801CE57DD4F80819881890F888320E001
:1038D00084305CF0F801E058FD4F80818F5F808379
:1038E00060E08F2D0E94111C21E088818D3F5CF4E7
:1038F000F801E058FD4F80818150808361E08F2D79
:103900000E94111C21E08881082E000C990BB60141
:103910000E941B2A8883E22AF394AFCF82E0BFCFB4
:1039200084E0089550E0440F551F98E1699F400DD1
:10393000511D112498E7899F400D511D1124CA0182
:10394000869608950F931F93CF93DF938430C8F426
:103950006530B8F44C30A8F40E94921C8C010E948F
:10396000892AC82FD0E0DC2FCC27C80101960E94FD
:10397000892A9E01282BC901DF91CF911F910F91B8
:10398000089590E080E0F8CF0F931F93CF93DF93DB
:10399000122F032F843078F4653068F44C3058F4DB
:1039A0000E94921CEC01602F0E94972A612FCE0189
:1039B00001960E94972ADF91CF911F910F91089550
:1039C0000F931F93CF93DF93D0E0C0E010E019C0B6
:1039D0000E94050521E030E08C171D0639F034F017
:1039E000402F612F8C2F0E9407059C01402F612FD3
:1039F0008C2F0E94C41C0F5F0C3051F71F5F1530D5
:103A000011F000E0E5CF2196C430D105F9F6DF9141
:103A1000CF911F910F910895EF92FF920F931F93F3
:103A2000CF93DF93EC018A017C01E60EF71ECE01F5
:103A30008696CE15DF0529F4CDB7DEB7E6E00C9407
:103A4000642AC03E21E0D20740F40E94892AF8018E
:103A500080830F5F1F4F2196EACFF8011082F9CFC4
:103A6000B0E0A0E0E6E3FDE10C94462A7C016A01A7
:103A70008C01060F171FEC01CE018696C017D107E7
:103A800029F4CDB7DEB7E8E00C94622AC03E21E00D
:103A9000D20740F4FE01EE19FF09EC0DFD1D608117
:103AA0000E94972A2196E8CF843038F4653028F4B4
:103AB0004C3018F40E94A21C089590E080E0089514
:103AC00080E108958AEF91E00895EF92FF920F93BD
:103AD0001F93CF93DF93EC018A017C01E60EF71E62
:103AE000CE018A5F9D4FCE15DF0529F4CDB7DEB735
:103AF000E6E00C94642ACA3F21E0D20740F40E9419
:103B0000892AF80180830F5F1F4F2196E9CFF801C2
:103B10001082F9CFB0E0A0E0E0E9FDE10C94462A84
:103B20007C016A018C01060F171FEC01CE018A5F30
:103B30009D4FC017D10729F4CDB7DEB7E8E00C944C
:103B4000622ACA3F21E0D20740F4FE01EE19FF09C4
:103B5000EC0DFD1D60810E94972A2196E7CFCF933F
:103B6000DF93C6E0D2E060E0CE010E94972A219662
:103B7000C11584E0D807B9F7DF91CF910895A8E087
:103B8000B0E0E5ECFDE10C94442AF82E8FE08F15AF
:103B900008F46EC08FEF93E00E94892A811168C0FB
:103BA00006E012E0F11035C0FE0131966F0188E0A9
:103BB00011928A95E9F77801FFEFEF1AFF0AC80121
:103BC0000E94892A89831A82882309F451C081308E
:103BD000D1F4580182E0A80EB11CC7010E94892AC5
:103BE0008A83882309F444C09FEF980F9330F0F440
:103BF000780193E0E90EF11CC5010E94892A8B83AC
:103C00008823B1F11C8260E0C6010E94A21B8701DB
:103C1000D2CF011594E0190759F1C8010E94892AF1
:103C2000811101C0FA940F5F1F4FBCCF7501843022
:103C300051F702E010E07501EFEFEE1AFE0AC50140
:103C40000E94892AF601E00FF11F8083882381F00A
:103C50008C3741F4E2E0F0E0EC0FFD1FE00FF11FC4
:103C60001082D1CF0F5F1F4F57010730110519F791
:103C70002896EAE00C94602ACF93DF93EB0186311B
:103C80009C4711F50E94410E9A81992399F08A7AF6
:103C900091E009F490E090938402811109C089E2D7
:103CA0000E94190E0E94820E80E0DF91CF9108954C
:103CB00085E3F6CF80918402811104C089E20E94DD
:103CC000210EF0CF85E3FBCF81E0EFCF0F931F9361
:103CD000CF93DF93C42FD22FFC0182818823C9F0B8
:103CE000409387020E94B2219093860280938502BE
:103CF00080E28C0F883040F4C77081E001C0880FEB
:103D0000CA95EAF70E94A207DF91CF911F910F9108
:103D1000089510918702141332C08091850290910A
:103D200086020E94CA21883C910548F5C0E2CD0F69
:103D30001D17B9F080E2810F883040F4177081E0E0
:103D400001C0880F1A95EAF70E94A907C83048F405
:103D500081E09D2F977001C0880F9A95EAF70E9425
:103D6000A207802F0E949907C83070F6D77081E0B3
:103D700001C0880FDA95EAF70E94A907C5CF80E253
:103D80008C0F883008F6C77081E001C0880FCA9593
:103D9000EAF7F2CF0F93DB0188519C4787309105FA
:103DA000A0F5FC01E25FF44D0C942F2A06E221EE0F
:103DB00041EE6AE17CE7CD010E94661E80E00F9132
:103DC000089507E225EE45EE6BE17CE7F4CF06E2CD
:103DD00021EE40EE68E17CE7EECF07E225EE44EE0F
:103DE00069E17CE7E8CF06E221EE42EE6CE17CE798
:103DF000E2CF07E225EE46EE6DE17CE7DCCF08E29C
:103E000021E045EE6EE17CE7D6CF12968C918823B7
:103E100019F010928702D3CF81E0D1CF1092B90070
:103E20008CE08093B8000895B0E0A0E0EAE1FFE103
:103E30000C94432AB82EEB010E94B2216C01EE24AF
:103E4000E394F12CC431D10560F025E0E22EF12C91
:103E5000CF3FDC0731F0CE0164E170E00E94072A19
:103E60007B0184EAA82E94E8992E1092BC00A092BF
:103E7000BC000E94B2218C018091BC0087FF0DC064
:103E80008091B900887F8830F9F08091B900887FEF
:103E90008031D1F00FEF1FEF08C0C8010E94CA2186
:103EA000E816F90648F70EEF1FEFCF3FDC07E9F2FF
:103EB000C6010E94CA21C817D907B8F6C801CDB7F4
:103EC000DEB7EBE00C945F2AB092BB009092BC008E
:103ED0000E94B2218C018091BC0087FF0AC08091B2
:103EE000B900887F883111F08034A1F610E000E03D
:103EF000E5CFC8010E94CA21E816F90660F7D3CFC2
:103F00000F931F93CF93DF93EB018093BB0084E863
:103F10008093BC000E94B2218C018091BC0087FF7D
:103F200011C02091B900287F81E090E0283211F47F
:103F300090E080E0919581959109DF91CF911F915B
:103F40000F910895CF3FDC0741F3C8010E94CA21B9
:103F5000C817D90710F78EEF9FEFEFCFB0E0A0E0C2
:103F6000E4EBFFE10C94462A6B018A017901B90167
:103F70000E94141FE6010C0D1D1DC017D10711F082
:103F800097FF08C024E92093BC00CDB7DEB7E8E076
:103F90000C94622AB70189910E94801FEECFB0E095
:103FA000A0E0E5EDFFE10C94462AC62F6A017901F5
:103FB000B8010E94141F97FD0CC0B8018C2F0E94FD
:103FC000801FE601EC0CFD1CCE15DF0511F097FFFC
:103FD00008C024E92093BC00CDB7DEB7E8E00C941C
:103FE000622AB80189910E94801FEECF84E98093F4
:103FF000BC0008959093C3018093C20108959093EB
:104000008D0280938C020895E0918C02F0918D02D4
:10401000309729F00190F081E02D0995089580E016
:104020000895EF92FF920F931F93CF93DF938C012C
:10403000E0918C02F0918D02309791F10280F38132
:10404000E02D09958091480282FF2AC080FF04C0BC
:1040500084E294E00E944903D0E0C0E08EE1E82EC3
:1040600084E0F82E8091480280FF0EC0F801EC0F2A
:10407000FD1F80811F928F93FF92EF920E94E203B7
:104080000F900F900F900F902196C830D10551F7E7
:104090008091480280FF04C08CE194E00E944903B3
:1040A000CDB7DEB7E6E00C94642AE0918C02F09183
:1040B0008D02309739F022E0DC012C930480F581E9
:1040C000E02D09950895A3E0B0E0E9E6F0E20C9454
:1040D0004C2A20918A0230918B0228173907A1F0CF
:1040E00090938B0280938A02E0918C02F0918D0272
:1040F000309751F023E029839B838A830680F781E0
:10410000E02DCE01019609952396E2E00C94682AF1
:10411000A3E0B0E0EEE8F0E20C944C2A2091880293
:104120003091890228173907A1F090938902809372
:104130008802E0918C02F0918D02309751F024E0DA
:1041400029839B838A830680F781E02DCE01019627
:1041500009952396E2E00C94682A9C012E5F3F4F5C
:10416000AC01485F5F4F80E02417350709F40895DC
:10417000F90191919F019923B9F38F5FF5CF6623E0
:1041800049F0FC01329608962191261729F0E8178C
:10419000F907D1F780E0089581E008959C01FC01C2
:1041A00032969FEF80E04191461751F09F3F19F4FE
:1041B000411101C0982F8F5F8630A9F79F3F09F406
:1041C0000895290F311D97FD3A95F90162830895ED
:1041D000FC01329608962191261303C0DF01119746
:1041E0001C92E817F907B9F708950E94CE200895A8
:1041F0000E94E8200895029626E0FC0111922A957B
:10420000E9F7089546E050E00E94732A21E0892BE7
:1042100009F420E0822F089508950E940C2108954A
:10422000811106C081E080938E020E940D210895C5
:1042300082E0F9CF83E080938E020E940D210895E1
:104240000E941021089581E080938E020E940D212A
:1042500008950E9423210895089508950E942D2114
:104260000895089508950E942C210895CF930E94E7
:1042700031210E9468130E943221C0E08C2F0E94DD
:10428000F512892B31F4CF5FC530C1F780E0CF91B3
:10429000089581E0FCCF85B7806885BF85B78068C9
:1042A00085BF08951F921FB61F9211248F939F936D
:1042B000AF93BF9380918F02811113C08091B90495
:1042C0009091BA04A091BB04B091BC044196A11D89
:1042D000B11D8093B9049093BA04A093BB04B0932A
:1042E000BC04BF91AF919F918F911F901FBE1F90F3
:1042F00018958091C104843031F10E9427061092F4
:104300008F0288E190E020E40FB6F894A89580939E
:1043100060000FBE2093600083B7817F846083BFFD
:1043200083B7816083BF7894889583B78E7F83BF7E
:104330000FB6F894A8958091600088618093600022
:10434000109260000FBE08950E94F5090E942E068B
:10435000089582E084BD93E095BD9AEF97BD809368
:104360006E0008952FB7F8948091B9049091BA0423
:10437000A091BB04B091BC042FBF08952FB7F8944F
:104380006091B9047091BA048091BB049091BC040F
:104390002FBF08959C014FB7F8948091B904909174
:1043A000BA04A091BB04B091BC044FBF821B930B15
:1043B000089578941F921FB61F9211248F939F9394
:1043C000AF93BF938091B9049091BA04A091BB04BC
:1043D000B091BC040196A11DB11D8093B9049093C6
:1043E000BA04A093BB04B093BC04BF91AF919F915A
:1043F0008F911F901FBE1F90189581E08093E00061
:1044000080E28093D8001092C9008FE19EE401976A
:10441000F1F700C0000087E090EBDC018093CA0454
:104420009093CB04A093CC04B093CD0488E19CE09E
:104430000FB6F894A895809360000FBE909360002B
:10444000FFCF88E19CE00FB6F894A89580936000B8
:104450000FBE90936000FFCF80919B0208959B0157
:10446000BA019091C1049430E9F48F708093E9000F
:104470009FEF8091E800915085FD06C085ED8A95FB
:10448000F1F700009111F5CF8091E80085FF0AC097
:1044900050E040E0C9010E9426258091E8008E7717
:1044A0008093E800089543E050E0BC0184E00E945E
:1044B0002F22089546E050E0BC0184E00E942F22A4
:1044C0000895CF93DF93EC0148E050E0BC0181E018
:1044D0000E942F2288E0FE01A3E9B2E001900D9234
:1044E0008A95E1F7DF91CF910895603231F440E28F
:1044F00050E0BC0182E00E942F2208958AE494E0FB
:104500000E9449038091C004811109C00E940527BF
:104510000E9462278091E20084608093E200089507
:1045200086E494E00E9449031092C004089582E456
:1045300094E00E9449030E94232108958EE394E0B1
:104540000E9449036091BD0481E0611101C080E0D7
:104550000E941A2108958AE394E00E9449039091F1
:10456000C10481E0943009F080E06091BD040E94B4
:1045700020210895209191022F5F822F62E30E94F3
:10458000FB29992319F0209391020895109291022A
:10459000809192028823F1F08091C1048430C1F4AB
:1045A0009091E9009F702091EC00822F817020FD96
:1045B00080E8892B95E09093E9009091EB0090FFC3
:1045C00004C09091EE0097FD08C08F708093E900C1
:1045D0001092920208951092F1009091E80095FDDA
:1045E000FACF9091E80090FFF0CF9091E8009E778D
:1045F0009093E800EACF42E061EC81E00E948126DE
:1046000042E261EC84E00E94812642E261EC82E0B9
:104610000E94812642E260EC83E00E94812642E211
:1046200061EC85E00E9481269091C10481E0943084
:1046300009F080E06091BD040E94102108958091EE
:10464000C304833009F463C030F48130E1F1823077
:1046500009F4A0C008958A3009F48CC08B3009F4A5
:1046600071C0893009F052C08091C204813209F0D2
:104670004DC08091C6049091C704009719F002972D
:1046800009F044C08091E800877F8093E800809122
:10469000E80082FF37C09091F3008091F20002970A
:1046A00031F48091F100813011F0863021F4809155
:1046B000F10080939B028091E8008B778093E80063
:1046C0000E94B52623C08091C204813AF9F48091FA
:1046D000E800877F8093E8008091C6049091C7042A
:1046E000892B61F468E083E992E070E00E94C425C0
:1046F0008091E8008B778093E800089560E090E077
:1047000080E0F3CF8091C1048111C1CF08958091E1
:10471000C204813AD9F78091C6049091C704892BCD
:10472000A9F78091E800877F8093E8008091E800F6
:1047300080FFFCCF809119018093F1008091E80007
:104740008E77BCCF8091C204813201F78091C6047C
:104750009091C704892BD1F68091E800877F8093E0
:10476000E8000E94B5268091C404809319010E943C
:10477000F50908958091C204813241F68091E800E4
:10478000877F8093E8000E94B5268091C5048093BE
:104790009C0208958091C204813A09F0B7CF8091BC
:1047A000E800877F8093E8008091E80080FFFCCFDD
:1047B00080919C02C1CF9FB7F894109292029FBF44
:1047C0009091C104943009F048C02091E9002F7005
:1047D0003091EC00932F917030FD90E8922B25E002
:1047E0002093E9002091EB0020FF34C02091EE00DF
:1047F00027FF30C020919002222321F02091E80071
:1048000025FF28C01092900226E03091E80035FF85
:1048100014C08093F1008091E80085FD27C080914D
:10482000E80080FFFCCF8091E8008E778093E8005D
:104830009F709093E90080E008953091C104343076
:1048400049F43091EB0035FD05C0215041F481E081
:10485000809390029F709093E9008FEF0895EFE9A5
:10486000FFE03197F1F700C00000CFCF8FB7F89489
:1048700021E0209392028FBFDBCF84B7877F84BF74
:104880000FB6F894A89580916000886180936000CD
:10489000109260000FBE80E890E00FB6F89480930D
:1048A0006100909361000FBE0E94292108950E942B
:1048B00005270E946227E2EEF0E080818460808319
:1048C00078940E94E029089581E191E00E94FF1F01
:1048D00008958091C104853051F486E394E00E94EC
:1048E00049038091C104853019F00E94A4210895E4
:1048F0000E9479218091BF04882399F30E94362178
:10490000882379F30E9410250E94F509EACFA0E2DE
:10491000B0E0EDE8F4E20C944C2A8091C1048430BC
:1049200009F583E08093E9008091E80082FF1AC0D6
:104930008091E80090E085FF09C050E040E060E22F
:1049400070E0CE0101960E94752591E08091E8000B
:104950008B778093E800992329F060E2CE010196DD
:104960000E948317A096E2E00C94682A0E94B92462
:104970000895292F33272330310521F168F42130A0
:10498000310509F443C02230310509F444C090E0F8
:1049900080E030E020E026C02132310551F12232A2
:1049A0003105A9F76430710590F7FB01EE0FFF1F89
:1049B000EF54FE4F2081318163557E4FFB01808192
:1049C00090E010C099278130910581F0009729F07F
:1049D0000297E9F6EEE4F4E002C0E6E7F4E0849141
:1049E00090E09F01FA01318320830895E2E6F4E02C
:1049F000F6CF6430710558F6660F771FFB01E75458
:104A0000FE4F2081318189E090E0ECCF82E190E09F
:104A100025EF34E0E7CF8BE790E02AE734E0E2CF00
:104A200080E189BD82E189BD09B400FEFDCF80919E
:104A3000D8008F7D8093D8008091E00082608093C1
:104A4000E0008091E00081FDFCCF0895AF92BF921D
:104A5000CF92DF92FF920F931F93CF93DF936C015E
:104A6000EB018A010E94D426F82E811123C0011582
:104A7000110539F0F80180819181C81BD90BC80E4E
:104A8000D91EB12CA12C2097A9F08091E80085FDBA
:104A900022C08091E8008E778093E800011511050F
:104AA000A1F0F80180819181A80EB91EB182A08287
:104AB00085E0F82E8F2DDF91CF911F910F91FF9000
:104AC000DF90CF90BF90AF9008950E94D4268823A6
:104AD000D1F2F82EEFCFF60181916F018093F100B2
:104AE0002197FFEFAF1ABF0ACECFAF92BF92CF92FE
:104AF000DF92FF920F931F93CF93DF936C01EB0133
:104B00008A010E94D426F82E811123C001151105B7
:104B100039F0F80180819181C81BD90BC80ED91ECC
:104B2000B12CA12C2097A9F08091E80085FD22C02E
:104B30008091E8008B778093E80001151105A1F0C2
:104B4000F80180819181A80EB91EB182A08285E012
:104B5000F82E8F2DDF91CF911F910F91FF90DF9055
:104B6000CF90BF90AF9008950E94D4268823D1F2B1
:104B7000F82EEFCF8091F100F60181936F0121971C
:104B8000FFEFAF1ABF0ACECFFC018091C80490910D
:104B9000C90486179707A0F06115710529F4909153
:104BA000E8009E779093E80090E06115710551F45C
:104BB000911108C08091E80082FF34C080E0089520
:104BC000BC01F2CF8091C1048823C1F18530C1F1CD
:104BD0008091E80083FD30C08091E80082FDEACF3B
:104BE0008091E80080FFE1CF8091F3002091F200F6
:104BF000382F6115710519F02830310558F091E012
:104C00002830310509F090E02091E8002E772093BC
:104C1000E800CBCF81918093F100615071092F5F43
:104C20003F4FE7CF8091C104882341F0853041F0A8
:104C30008091E80083FFBECF81E0089582E008956F
:104C400083E00895FC018091C8049091C9048617FF
:104C50009707A0F06115710529F48091E8008E771F
:104C60008093E80090E06115710551F4911108C03E
:104C70008091E80082FF35C080E00895BC01F2CF4A
:104C80008091C1048823C9F18530C9F18091E80081
:104C900083FD31C08091E80082FDEACF8091E80079
:104CA00080FFE1CF8091F3002091F200382F611551
:104CB000710519F02830310558F091E028303105A0
:104CC00009F090E08091E8008E778093E800CBCFE8
:104CD00084918093F1003196615071092F5F3F4FAD
:104CE000E6CF8091C104882341F0853041F0809166
:104CF000E80083FFBDCF81E0089582E0089583E05E
:104D00000895982F973028F08F708093E90081E004
:104D100008959093E900242F762F50E0981731F0F2
:104D20007091EC002091ED005091F00021FD02C047
:104D30009F5FE8CF3091EB003E7F3093EB003091E6
:104D4000ED003D7F3093ED003091EB00316030930A
:104D5000EB007093EC002093ED005093F000209155
:104D6000EE0027FDE5CF80E008958091C20487FF23
:104D700013C08091E80082FF06C08091E8008B7725
:104D80008093E80004C08091C1048111F2CF08959E
:104D90008091C1048823D9F38091E80080FFF8CF87
:104DA0008091E8008E77ECCF2091E4003091E5000F
:104DB00095E6A9012091EC00822F817020FF06C0AA
:104DC0008091E80080FF06C080E008952091E8000F
:104DD00022FD1AC08091C104882389F0853089F0B2
:104DE0008091EB0085FD0FC02091E4003091E5003B
:104DF00042175307F9F29150E1F684E0089582E0FA
:104E0000089583E0089581E008950E9474270E9428
:104E10007C27E0EEF0E0808181608083E8EDF0E0C7
:104E200080818F77808319BCA7EDB0E08C918E7F55
:104E30008C9380818F7E80831092C00408950F939D
:104E40001F93CF93DF930E9474270E947C27C8EDA5
:104E5000D0E088818F778883888180688883888183
:104E60008F7D888319BC1092C1041092BD041092EA
:104E7000BF041092BE0400EE10E0F80180818B7F29
:104E8000808388818160888342E060E080E00E94C6
:104E90008126E1EEF0E080818E7F8083E2EEF0E01B
:104EA000808181608083808188608083F801808137
:104EB0008E7F8083888180618883DF91CF911F916D
:104EC0000F910895E8EDF0E080818F7E8083E7ED1B
:104ED000F0E080818160808384E082BF81E0809304
:104EE000C0040E941F270895E8EDF0E080818E7FC6
:104EF00080831092E20008951092DA001092E1008F
:104F000008951F920F920FB60F9211242F933F9383
:104F10004F935F936F937F938F939F93AF93BF93C1
:104F2000EF93FF938091E10082FF0BC08091E2003C
:104F300082FF07C08091E1008B7F8093E1000E9497
:104F4000BA228091DA0080FF19C08091D80080FFDA
:104F500015C08091DA008E7F8093DA008091D900AD
:104F600080FF96C080E189BD82E189BD09B400FE61
:104F7000FDCF81E08093C1040E947E228091E100F8
:104F800080FF19C08091E20080FF15C08091E2008F
:104F90008E7F8093E2008091E20080618093E20046
:104FA0008091D80080628093D80019BC85E08093FE
:104FB000C1040E949E228091E10084FF2BC0809159
:104FC000E20084FF27C080E189BD82E189BD89B507
:104FD000982F917080FFFBCF8091D8008F7D8093B8
:104FE000D8008091E1008F7E8093E1008091E20003
:104FF0008F7E8093E2008091E20081608093E200E6
:105000008091BD04882309F449C084E08093C104E1
:105010000E94AB228091E10083FF29C08091E200D1
:1050200083FF25C08091E100877F8093E10082E0CB
:105030008093C1041092BD048091E1008E7F809323
:10504000E1008091E2008E7F8093E2008091E20097
:1050500080618093E20042E060E080E00E9481266F
:105060008091F00088608093F0000E949722FF9169
:10507000EF91BF91AF919F918F917F916F915F91D0
:105080004F913F912F910F900FBE0F901F90189549
:1050900019BC1092C1040E94902270CF8091E3004D
:1050A00087FD93E09093C104B3CF1F920F920FB688
:1050B0000F9211242F933F934F935F936F937F939E
:1050C0008F939F93AF93BF93CF93DF93EF93FF9310
:1050D000D091E900DF708091EC00C82FC17080FD95
:1050E000C0E81092E9008091F000877F8093F00083
:1050F00078940E9499281092E9008091F0008860CD
:105100008093F000CD2BCF70C093E900FF91EF9119
:10511000DF91CF91BF91AF919F918F917F916F91CF
:105120005F914F913F912F910F900FBE0F901F9065
:105130001895AAE2B0E0EFE9F8E20C944B2A82EC71
:1051400094E02091F100FC012193CF01F4E08A3C2E
:105150009F07B9F70E941F238091E80083FF1EC1BB
:105160008091C2049091C3049A3008F017C1E92FCE
:10517000F0E0EB5EF44D0C942F2A803899F08238E1
:1051800009F00CC18091C6048F70873008F006C109
:105190008093E9008091EB0085FB882780F91092CD
:1051A000E90006C08091BE049091BF049111826015
:1051B0009091E800977F9093E8008093F10010921F
:1051C000F1008091E8008E77E5C0882309F4D3C010
:1051D000823009F0E3C08091C4048111D6C080916F
:1051E000C6048F702FEF280F263008F0D7C08093A9
:1051F000E9002091EB0020FFC8C0933031F480918A
:10520000EB0080628093EB00C0C09091EB00906156
:105210009093EB0021E030E001C0220F8A95EAF77D
:105220002093EA001092EA008091EB008860EACFB8
:105230008111B4C01091C4041F778091E30080787D
:10524000812B8093E3008091E800877F8093E800C2
:105250000E94B5268091E80080FFFCCF8091E3009A
:1052600080688093E30082E0111183E08093C104A1
:1052700095C08058823008F091C08091C40490910C
:10528000C5048C3D23E09207A1F583E08A838AE27E
:1052900089834FB7F894DE01139620E03EE051E297
:1052A000E32FF0E050935700E49120FF03C0E29514
:1052B000EF703F5FEF708E2F90E0EA30C0F0C7963E
:1052C0008D939D932F5F243159F74FBF8091E80054
:1052D000877F8093E8006AE270E0CE0101960E9429
:1052E000C4258091E8008B778093E80057C0C09672
:1052F000E7CF6091C6047091C704AE014F5F5F4F66
:105300000E94B624BC01892B09F448C09091E800A2
:10531000977F9093E80089819A810E942226E1CFAD
:105320008038E1F58091E800877F8093E8008091E4
:10533000BD048093F10045CF811130C09091C40429
:10534000923060F58091E800877F8093E800909329
:10535000BD040E94B5268091BD04882311F084E02D
:1053600005C08091E30087FDFACF81E08093C104FE
:105370000E94FB2213C08091C404813079F481E043
:10538000933009F080E08093BF041092E90080918F
:10539000E800877F8093E8000E94B5268091E800AE
:1053A00083FF0AC08091E800877F8093E8008091A6
:1053B000EB0080628093EB00AA96E3E00C94672AEE
:1053C000CF938091C1048823A1F0C091E900CF70F0
:1053D0009091EC00892F817090FD80E8C82B10928D
:1053E000E9008091E80083FD0E949928CF70C09366
:1053F000E900CF910895991B79E004C0991F961791
:1054000008F0961B881F7A95C9F780950895AA1B06
:10541000BB1B51E107C0AA1FBB1FA617B70710F09F
:10542000A61BB70B881F991F5A95A9F780959095D1
:10543000BC01CD01089597FB072E16F4009407D008
:1054400077FD09D00E94072A07FC05D03EF490950D
:1054500081959F4F0895709561957F4F0895EE0F48
:10546000FF1F0590F491E02D09946927962769277D
:1054700078278727782708952F923F924F925F923F
:105480006F927F928F929F92AF92BF92CF92DF9254
:10549000EF92FF920F931F93CF93DF93CDB7DEB7B9
:1054A000CA1BDB0B0FB6F894DEBF0FBECDBF09944D
:1054B0002A88398848885F846E847D848C849B84A4
:1054C000AA84B984C884DF80EE80FD800C811B81B2
:1054D000AA81B981CE0FD11D0FB6F894DEBF0FBEE1
:1054E000CDBFED010895FB01DC0104C08D91019059
:1054F000801921F441505040C8F7881B990B08953A
:10550000FB01DC0102C001900D9241505040D8F7E0
:105510000895F999FECF92BD81BDF89A992780B57B
:105520000895A8E1B0E042E050E00C94BD2A262F97
:10553000F999FECF92BD81BDF89A019700B4021689
:1055400039F01FBA20BD0FB6F894FA9AF99A0FBE37
:1055500008950396272F0E94982A0E94972A252FA4
:105560000E94982A242F0C94982A0196272F0E9493
:10557000982A0C94972ADC01CB01FC01F999FECF03
:1055800006C0F2BDE1BDF89A319600B40D924150CB
:105590005040B8F70895F894FFCFEB07EB071C08CD
:1055A0001C08AE08CA084B084B08CF083609450945
:1055B00045099817A417D117E317EE17F917FC1729
:1055C000FC17FC17AA17AA17011805180D181A18A6
:1055D00027182A182D183A18C11A351BC91A931AF8
:1055E000971ACD1A9B1AD11ADD1AA71A2E1BAB1ABD
:1055F000E11AAF1AE51A0D1BB31AE91A141BB91AEE
:10560000EF1AF71A9F1AD51AA31AD91ABD1AF31A44
:10561000031B1D1B2C1B8D1AC51A3C1BE71EED1E00
:10562000D61EE11EF31EF91EFF1EBD28E528CE2959
:0E563000E528CE2918293929CE2990299C2950
:10563E002602280850011E0A14010021007F2200B4
:10564E00032C2261225A22532201F6F731333236CD
:10565E00FFFFFFFFFFFF97C6343566E200E900EA61
:10566E0000B500B600B700CD008301CC008A0192D0
:10567E000194012102230224022502260227022A76
:10568E0002B300B4006F0070009F01CB01818283D2
:10569E00E200E900EA00B500B600B700CD008301D4
:1056AE00CC008A01920194012102230224022502D8
:1056BE00260227022A02B300B4006F0070009F0179
:1056CE00CB01818283000810181810080000FF011A
:1056DE0000010000FFFF0000010001FF0040227BDF
:1056EE0022C60529054B0507058C04A504C504DE55
:0256FE000400A6
:00000001FF
