:100000000C94F3010C942B020C942B020C942B02F5
:100010000C942B020C942B020C942B020C942B02AC
:100020000C942B020C942B020C946C230C94402403
:100030000C94FD1D0C942B020C942B020C942B029F
:100040000C942B020C942B020C942B020C942B027C
:100050000C942B020C94841E0C942B020C942B02F7
:100060000C942B020C942B020C942B020C942B025C
:100070000C942B020C942B020C942B020C942B024C
:100080000C942B020C942B020C942B020C942B023C
:100090000C942B020C942B020C942B020C942B022C
:1000A0000C942B020C942B020C942B0229001400AC
:1000B0001A000800150017001C0018000C001200A0
:1000C00013002A002B0004001600070009000A0094
:1000D0000B000D000E000F002F003000E1001D008E
:1000E0001B00060019000500110010003600370043
:1000F00038002800E000E2000100225221522C00CA
:100100002C0001005000520051004F00A8000000D8
:1001100000000000000000000000000000000000DF
:1001200000000000010001000100010001000100C9
:1001300001000100010001000100010001000100B7
:1001400001000100010001000100010001000100A7
:100150000100010001000100010001000100010097
:100160000100010001000100010001000100010087
:100170000100010001000100010001000100010077
:10018000010001000100000000000000000000006C
:1001900000000000000000000000000000AE00AF02
:1001A00000DA0281FFD9F1DB20A4A62EAF00A0C0A7
:1001B00000A1C800AED580A81FD300408D14200038
:1001C00000000000000000002A2B280000000000B2
:1001D00000000000000000000000002900000000F6
:1001E0002C1E3420212224342627252E362D373864
:1001F000271E1F202122232425263333362E37386D
:100200001F0405060708090A0B0C0D0E0F1011122A
:10021000131415161718191A1B1C1D2F3130232DF6
:10022000350405060708090A0B0C0D0E0F101112F4
:10023000131415161718191A1B1C1D2F3130354CA5
:1002400000000000000000000000000000000000AE
:10025000000000000000000000000000000000009E
:10026000000000007E0F00D4FFFFFFC700000078F1
:1002700012037400670068006F007300740034009C
:1002800038000000120368007600750069007400F1
:1002900073006D00650000000403090409025B009F
:1002A000030100A0FA090400000103010100092173
:1002B0001101000122400007058103080001090423
:1002C00001000203000000092111010001222200A7
:1002D000070582032000010705030320000109042C
:1002E00002000103000000092111010001227B002E
:1002F000070584032000011201000200000008ED40
:10030000FE00000001010200010660FF0961A10179
:100310000962150026FF0095207508810209631502
:100320000026FF00952075089102C005010902A171
:100330000185020901A100050919012908150025F7
:1003400001950875018102050109300931158125E2
:100350007F95027508810609381581257F950175FD
:10036000088106050C0A38021581257F950175085C
:100370008106C0C005010980A101850319012AB7C2
:1003800000150126B700950175108100C0050C0904
:1003900001A101850419012AA002150126A00295D8
:1003A0000175108100C005010906A101050719E0CA
:1003B00029E7150025019508750181029501750849
:1003C00081010507190029FF150026FF0095067514
:1003D0000881000508190129059505750191029507
:1003E0000175039101C011241FBECFEFDAE0DEBF1B
:1003F000CDBF04B603FE18C08091C1049091C20421
:10040000A091C304B091C4048730904BA740B04B77
:1004100059F41092C1041092C2041092C3041092B5
:10042000C404E0E0F8E3099511E0A0E0B1E0EEEFEC
:10043000FDE402C005900D92AC3BB107D9F724E072
:10044000ACEBB1E001C01D92A13CB207E1F70E9404
:1004500058110C94AB260C940000F894E82FE29508
:10046000EF70F0E031A1282F2F7081E090E001C003
:10047000880F2A95EAF7382B31A392A1809589231A
:1004800082A378940895F894E82FE295EF70F0E055
:1004900031A1282F2F7081E090E001C0880F2A95AC
:1004A000EAF7982F9095932391A392A1892B82A389
:1004B000789408950F931F93CF93DF93C6E2D1E012
:1004C00089918F3F11F00E94430281E0CB32D8071F
:1004D000B9F7CAE1D1E006E211E089918F3F11F04E
:1004E0000E9443020C171D07C1F7DF91CF911F91A6
:1004F0000F9108956F927F929F92AF92BF92CF9289
:10050000DF92EF92FF920F931F93CF93DF937C01C3
:100510005C018AE0A80EB11C870146E2C42E41E0CE
:10052000D42EC0E0D601DD916D01912CDF3FC1F1E9
:100530008D2F0E942D0200C000C0EAE1F1E061E0D1
:1005400070E050E040E021912F3F09F491C0A22FCC
:10055000A295AF70B0E090968C9190E02F7002C0A1
:10056000959587952A95E2F780FD82C0CB01482BAF
:10057000592B660F771FB1E0E632FB0721F7F80130
:1005800080819181912C4817590721F05183408334
:10059000992493948D2F0E944302F0EAFA95F1F783
:1005A000C9290E5F1F4FA016B10609F0BBCF2AE183
:1005B000C22E21E0D22E00E410E0D601DD916D01C3
:1005C000912CDF3FE9F18D2F0E942D0200C000C069
:1005D00096E2692E91E0792EF701912CA8014095C1
:1005E000509521913191D3016D913D016F3F09F4F7
:1005F00042C0862F82958F7090E0DC0190968C919E
:1006000090E06F7002C0959587956A95E2F780FD3E
:1006100032C0C901802B912B2817390741F09F0167
:1006200022503109D9018D939C9399249394AE164D
:10063000BF06B9F68D2F0E944302B0EABA95F1F7D2
:10064000C929000F111FE6E2CE16E1E0DE0609F02F
:10065000B4CF8C2FDF91CF911F910F91FF90EF902E
:10066000DF90CF90BF90AF909F907F906F90089554
:1006700090E080E07CCFCA0182239323CDCF82E03B
:1006800008958230B8F46530A8F44C3098F450E006
:100690009CE0699F400D511D1124FA019CE3899F44
:1006A000E00DF11D1124EE0FFF1FE455FF4F859162
:1006B0009491089580E090E0089581E0089581E0AC
:1006C00008950E945F03089508950E9464030895A9
:1006D000A5E0B0E0EEE6F3E00C942B2649835A83C4
:1006E0003091C30189819A81311119C0662399F033
:1006F000222389F00E940309182F682F89819A818B
:100700000E94DF0869817A81812F0E948C0F2596D3
:10071000E3E00C9447260E94F108182FF3CF0E94C3
:10072000030969817A81F1CFFC01262F4081518133
:100730006281738184810E946803089581E0089535
:10074000CF93DF93EC0160E00E949403BE010E940E
:100750006503DF91CF910895E1E0F0E0DF0102C091
:10076000AA0FBB1F6A95E2F7BD01DF0102C0AA0F05
:10077000BB1F4A95E2F76A2B01C0EE0F2A95EAF7F4
:10078000962F9823961302C08E2B0895E0958E2302
:100790000895242F462F682F8091DC010E94AC031E
:1007A0000E94410808950E94BD1008950E94C11042
:1007B000089508950E94D5070E94D9032FEF84E37E
:1007C0009CE0215080409040E1F700C00000089577
:1007D0000E94DA030E94A81E08950E94DA030E9474
:1007E000CC1E08950F931F93CF93DF938C0161E08C
:1007F0000E949403EC01B8010E944F14811106C0BD
:1008000080E0DF91CF911F910F910895B801CE0143
:100810000E9461038823A1F3B801CE010E94AE1BA0
:10082000882371F3B801CE010E944D17882341F34C
:10083000B801CE010E94201B882311F3F8018281A8
:10084000882361F0C330FCE7DF07E9F058F4C115F5
:10085000ECE7DE07A9F0C130DC47B9F0C8010E941F
:100860005D03CFCFCB358CE7D807A9F0CC35ECE7CB
:10087000DE0771F0CA35DC4789F70E94000DEECF24
:100880000E94E803BDCF0E94080D0E94ED03B8CF7F
:100890000E94F60CE3CF0E94040DE0CF0E94D91D08
:1008A0000E947A040E94031708950E947E040E9409
:1008B000DE1D089508950E945A04089581E0089568
:1008C0000895CF93DF93D82F0E945E04C82F88230A
:1008D00019F08D2F0E9460048C2FDF91CF91089525
:1008E0000895CF93C82F0E945B048C2F0E9461044F
:1008F000CF91089580E00E94710408950E94E81C41
:100900000E9471040895CF930E94E81CC82F809123
:10091000BE018C1779F0C093BE010E94691E6093DE
:10092000BF017093C0018093C1019093C2018C2FCD
:100930000E947104CF910895ABE0B0E0E2EAF4E0E8
:100940000C942C264F83588769877A878B8761118F
:100950000E94410C1E821D8285E0FE013796DE0159
:10096000119601900D928A95E1F78C819D81892BDA
:1009700061F449815A816B817C818D819E810E94C5
:100980006A0B2B96E2E00C94482689819A81892390
:100990008F3F79F3CE0101960E949E038111E9CF2A
:1009A000F0CFFC01808191810E9430090895662377
:1009B00029F00E94DC110E94AF1208950E943612A5
:1009C000FACFCF93C82F8823B9F08CEF8C0F813AE0
:1009D000A8F46C2F80910001909101010E946A1D82
:1009E000882329F08C2F0E94010C0E94620C8C2F0E
:1009F0000E94F90B0E94620CCF91089580E28C0F47
:100A0000883048F4C77081E001C0880FCA95EAF7C2
:100A10000E94240CEFCFEBE5EC0FE33040F4F0E064
:100A2000E35AFE4F808190E00E940E1DE5CFE8E57D
:100A3000EC0FE93150F4F0E0EE0FFF1FE55DFE4FE3
:100A4000808191810E94331DD7CF83E38C0F833146
:100A500098F661E08C2F0E94D704CECF882381F1D5
:100A60009CEF980F913A28F40E94010C0E94620CAE
:100A7000089590E2980F983050F4877091E001C08B
:100A8000990F8A95EAF7892F0E942A0CEFCF9BE5F0
:100A9000980F933028F490E080E00E940E1D089596
:100AA00098E5980F993128F490E080E00E94331D7A
:100AB000089593E3980F933118F460E00E94D704EF
:100AC00008951F93CF93DF93182FEB010E94E10449
:100AD000209739F4812F0E942E05DF91CF911F912D
:100AE00008958FE99FE00197F1F700C0000021977A
:100AF000EFCF70E060E0893311F460E570E00E94B0
:100B000061050895882321F00E94240C0E94620C44
:100B10000895882321F00E942A0C0E94620C0895F7
:100B2000B0E0A0E0E6E9F5E00C9425266C01D62FB4
:100B3000C72FFC011281F580F2949FE0F9220E94F8
:100B40001A0CE82E8823B9F0E12E1123A1F08C2F86
:100B5000807F803421F080E28D0F8830D0F080914A
:100B6000950282FF16C082E00E94C50C0E941A0CFA
:100B700091E0E82EE926BC2EB2948FE0B822FBE08B
:100B8000FB1508F468C0EB2DF0E0E355F94D0C942B
:100B90000F26E12CF0CF0C2F0F70C07F11F00295C3
:100BA000007F112399F0002359F080E28D0F8830E7
:100BB00010F0D11107C0802F0E94240C0E94620CFB
:100BC0008D2F41C0802F0E94340CF8CF8D2F0E94B2
:100BD0002E05002309F43FC080E28D0F883010F00D
:100BE000D11104C0802F0E942A0C03C0802F0E94C4
:100BF0003A0C0E94620C2FC00C2F0F70C07FC032C5
:100C000011F00295007FDD2381F0D13009F468C036
:100C1000112309F472C0FF2009F468C0F601858130
:100C200080FFCECF8F70858361C08091950282FD59
:100C300033C0112359F0002329F0802F0E94240C87
:100C40000E94620C80E00E94E10405C080E00E94E6
:100C50002E050111C7CFEB2DE850FF0B349720F480
:100C60000E94E81C0E947104EE2089F00E94160C7C
:100C700080FD0DC0F60112820E94100C0E945308E4
:100C8000C6010E9495070E94100C0E945F08CDB714
:100C9000DEB7E9E00C944126112389F0F11006C07B
:100CA0000E94440C802B0E948205D5CF21E0F212D5
:100CB000F7CF0E94440C802B0E944B0CCCCFF1103C
:100CC00006C00E94580C802F0E948905C4CF31E0D5
:100CD000F31609F2802F0E9489050E94580CBBCFA1
:100CE000112331F085E08F1508F4B5CF802FDBCFCD
:100CF00094E09F1508F4AFCFE6CFFF2021F3D9335E
:100D000049F4FFEF27EE33E0F15020403040E1F7A7
:100D100000C000008D2F0E942E059DCF8C2F869540
:100D20008695837069F0813009F095CF8D2F9C2FC7
:100D30009370111102C080E090E00E94331D8BCFB0
:100D40008D2F9C2F9370111102C080E090E00E94C3
:100D50000E1D81CF612F8D2F0E94D7047CCF8C2F49
:100D6000837079F5111177CF4D2F429546954770D5
:100D7000440F440F8D2F8F70042E01C0880F0A94EA
:100D8000EAF72D2F2071D4FF07C02FE030E001C01B
:100D9000220F4A95EAF72095C695C695C370822B17
:100DA000C23049F058F4C13019F00E942F0853CFD7
:100DB0000E94290850CF0E9435084DCF0E94260876
:100DC0004ACF8695112311F08C2F8170882309F466
:100DD00042CF4D2F429546954770440F440F8D2FBB
:100DE0008F70042E01C0880F0A94EAF72D2F20710E
:100DF000D4FF07C02FE030E001C0220F4A95EAF788
:100E00002095C695C695C370822BC23049F058F420
:100E1000C13019F00E947E081ECF0E9478081BCFB7
:100E20000E94840818CF0E94410815CFCF7011236B
:100E300029F08C2F0E9453088D2F35CF8D2F0E94C3
:100E400089058C2F0E945F0806CFD23F51F160F4D4
:100E5000D03FB9F0D13F81F0112309F449C0F1101E
:100E6000AFCE8C2F8F7121C0D33F11F1D43FA1F7AA
:100E70008091950282FD26C08C2F8F71112311F372
:100E800014C0112349F084E08F1508F4E4CE8C2FB0
:100E90008F710E946C08DFCE95E09F1508F4DBCEC1
:100EA000F6CF8C2F8F711111CDCF0E945308D3CE66
:100EB000112329F08C2F8F710E944A08CCCE0E94FA
:100EC0004608C9CE112349F0CF718C2F0E945308D8
:100ED00063E08C2F0E94A70CBECE81E00E94C50C5F
:100EE000E1E0EF1508F0B7CE82E00E94C50CB3CE6A
:100EF000F11005CF8C2F8F71A5CF0F931F93CF9338
:100F0000DF93EC01688179818A810E943B098C0121
:100F10000E948A080E942508B801CE010E9490050F
:100F2000DF91CF911F910F910895CF93DF93EC0143
:100F30008B819C81892B29F08881998189238F3F1E
:100F400051F4DF91CF910895CE010E947D07CE012B
:100F50000E94A003F6CFCE010E94F2038111F4CFCC
:100F60000E941A0C882369F38A81882351F38091A7
:100F7000950282FFE6CF82E00E94C50CE2CF90E0AE
:100F800080E00E940E1D90E080E00E94331D0E94D0
:100F9000410C0E94620C0E94CB120E94AF12089575
:100FA0000E94090C0E94BF0708950E94310C0E9404
:100FB000D007089592959F70963091F058F4925F03
:100FC0009F70923058F4803F19F030F4883E30F42E
:100FD00081E008959A5FF4CF843FD1F380E00895D3
:100FE000883EB0F3813FD1F7F3CFFC018381948138
:100FF000892B29F08081918189238F3F11F480E032
:101000000895808191810E9430090E94DA07089535
:10101000A5E0B0E0EEE0F8E00C942C262596E2E0A6
:101020000C944826A6E0B0E0E8E1F8E00C942C2609
:101030002696E2E00C94482608950E941C08089524
:101040000E941D088093DD01089508950E942008E4
:1010500008959091DD01892B0E94200808959091B8
:10106000DD0189230E94200808959091DD018927E0
:101070000E94200808950E941C0808950E943B08C1
:1010800008950E943E088093DC01089580E00E944C
:101090004108089591E001C0990F8A95EAF7892FD8
:1010A0000E944108089521E030E001C0220F8A9596
:1010B000EAF78091DC01822B0E944108089521E02B
:1010C00030E001C0220F8A95EAF720958091DC017B
:1010D00082230E944108089521E030E001C0220FE0
:1010E0008A95EAF78091DC0182270E9441080895E1
:1010F0009091DC01892B0E94410808959091DC01B8
:1011000089230E94410808959091DC0189270E945B
:10111000410808950895262F277091E001C0990F86
:101120002A95EAF723E0769567952A95E1F7FB0182
:10113000EE0FFF1FE60FF71FE40FF51F50E040E032
:10114000682F70E08191DF0111979B01042E02C08E
:10115000369527950A94E2F72170219528272923AF
:1011600028272C934F5F5F4F4330510559F708955F
:10117000A82FA77023E0969587952A95E1F7FC01A3
:10118000EE0FFF1FE80FF91FE60FF71F50E040E0DA
:1011900080E0219130E00A2E02C0369527950A940E
:1011A000E2F721703327042E01C0220F0A94EAF7D8
:1011B000822B4F5F5F4F4330510559F70895262F1B
:1011C000953070F48C3060F4682F70E08CE0989F5C
:1011D000600D711D112444EC51E0822F0E948B0898
:1011E0000895292F953068F48C3058F490E064EC21
:1011F00071E03CE0239F800D911D11240E94B808EE
:10120000089580E00895CF92DF92FF920F931F938D
:10121000CF93DF936C010091DC018091DD01082BFD
:10122000C7E0D0E010E0FC2EC8010C2E02C095955E
:1012300087950A94E2F780FD0CC02197A0F7F12C66
:101240008F2DDF91CF911F910F91FF90DF90CF9065
:101250000895B6018C2F0E94980F019771F3F0CF7B
:10126000CF93DF93EC010E940309BE010E94980F07
:10127000DF91CF9108951F93CF93DF93EB0190916E
:10128000C301992339F0CB010E943009DF91CF913E
:101290001F910895882369F0CB010E940309182F3C
:1012A000682FCE010E94DF08BE01812F0E94980F97
:1012B000EDCFCB010E94F108182FF6CF1F93CF93EB
:1012C000DF93C091DE0116E08091DF018C1304C032
:1012D000DF91CF911F910895D0E01C9FF0011D9FD9
:1012E000F00D1124E052FE4F4081518162817381E3
:1012F000848195810E9412082196C770E5CF4091A4
:1013000010025091110260911202709113028091AB
:101310001402909115020E94120808951F93CF9312
:10132000DF9380911502807F09F049C080911202FD
:10133000882309F444C08091DE01C091DF016091EF
:10134000100270911102A0911302B0911402D62FD5
:10135000D72316E0C81799F190E0109711F0DF3FFE
:1013600019F401968770F6CF189F9001199F300DE0
:101370001124F901E052FE4F41814713F2CF408121
:101380004613EFCF42814111ECCF438154814A1B78
:101390005B0B483C510528F7809115028F708061E6
:1013A00080931502F901EB51FE4F80818F708061AF
:1013B000808380E192E00E9495070E945E09DF91A0
:1013C000CF911F910895A1E1B0E0E9EEF9E00C940E
:1013D00024268C0185E0F801DE011D9601900D9216
:1013E0008A95E1F7F801E28080E1C82E82E0D82EEC
:1013F00060911302709114026115710509F44EC1D8
:101400009091100220911102892F82238F3F09F4BD
:1014100045C140815181A380B480F0901202F50152
:10142000E61BF70BFF2009F4EAC080911502382F64
:10143000307FE83CF10508F0A3C031116DC0FE2CEF
:10144000251316C0941314C0E11012C08F70806170
:10145000809315020E947F09C6010E949507809122
:101460001502F80185838F2D6196EAE00C944026E1
:10147000A114B10429F0842F85238F3F09F027C1DF
:1014800080E0F82FF170DF2E80FF3CC08091DE01FC
:101490002091DF0136E0821315C04D875E878D8570
:1014A0009E850E943009292F22952F702230F0F05E
:1014B000243018F59F70F1F0F8019581907FD1F4F8
:1014C000D12C1EC090E0389FF001399FF00D1124FF
:1014D000E052FE4F6181651306C06081641303C052
:1014E0006281E6120FC001968770D5CF9F7011F010
:1014F000882331F3805E883018F3C8010E94950775
:10150000FD2CB1CFEE2009F4AECF809115028160A1
:1015100080931502F12CA7CF251306C0941304C0A5
:10152000F801EE2009F487C0C8010E94F50788235E
:1015300019F1EE2009F180911502803270F02091AE
:1015400010023091110238872F831986BB86AA8634
:101550008C87CE0107960E94950786E0F801A0E1EE
:10156000B2E001900D928A95E1F70E948E090E94E7
:101570007F09FF24F39477CFC8010E949507F9CF24
:10158000311113C07A2DB98AA88A6E2D89890E94DB
:10159000080880E192E00E94950786E0F60111922A
:1015A0008A95E9F70E947F09B5CF25130FC09413E0
:1015B0000DC0E1100BC0F8018583C8010E9495079A
:1015C00086E0F60111928A95E9F74DCFC8010E9495
:1015D000F507882389F2EE2079F280911502803296
:1015E00008F4BBCF20911002309111023A83298375
:1015F0001B82BD82AC828E83CE010196ACCFE83CCB
:10160000F10508F03EC0FE2CEE2009F4B5CF2513FD
:101610002AC0941328C08091150280FD1BC0982F0A
:10162000907FC1F0F8018583903F31F0982F907F33
:10163000905F8F70892B8583C8010E94950786E093
:10164000F801A0E1B2E001900D928A95E1F70E94C5
:101650007F0909CF86E0F801A0E1B2E001900D9288
:101660008A95E1F700CFC8010E94F507811175CF77
:1016700080911502816080931502C8010E94950730
:10168000F2CE7A2DB98AA88A6E2D89890E9408081F
:1016900086E0F60111928A95E9F7D9CFEE2009F498
:1016A0006BCFC8010E94F507F82E882309F464CF98
:1016B00086E0F801A0E1B2E001900D928A95E1F791
:1016C00080E192E00E94D1040E948E09C0CF81E0A7
:1016D0008E25D7CEACE0B0E0E0E7FBE00C942B2603
:1016E0004F83588769877A878B879C87CE010796B7
:1016F0000E94E309882369F08A859B85892B39F04C
:101700004F815885842F85238F3F09F06BC016E0E9
:101710005FC086E0FE013796DE01119601900D92C2
:101720008A95E1F78A859B85892B89F38F81988536
:1017300089238F3F61F32091DF0130E0C9010196D9
:10174000877099274091DE014817190671F40E94AD
:10175000D5071092DF011092DE0186E0E0E1F2E0B1
:10176000DF011D928A95E9F7D2CF96E0929FD001D2
:10177000939FB00D1124A052BE4FFE0131960190EF
:101780000D929A95E1F78093DF010E945E09BFCF29
:10179000819FC001112480529E4F0E94E30988233B
:1017A000E9F0E091DE011E9FF0011124E052FE4FAE
:1017B0004081518162817381848195810E941208E8
:1017C0008091DE0190E00196877099278093DE0179
:1017D0008091DE019091DF018913DACF2C96E3E04E
:1017E0000C94472669857A858B859C850E94120812
:1017F0008ECF682F80910001909101010E94A01D61
:101800000895682F80910001909101010E94A31D0D
:10181000089580910001909101010E94A61D0895F4
:1018200080911E02859585958595089580911E026B
:101830008770089590911E02977081E009F480E00E
:10184000089580912902089590912902892B80930F
:101850002902089580959091290298239093290256
:10186000089510922902089590912802892B80935F
:101870002802089580959091280298239093280239
:10188000089510922802089580911F0208950895E6
:101890000E94470C08959091950292FF08C0909184
:1018A0001F02981721F080931F020E94480C089590
:1018B00080911F02882329F010921F0280E00E946D
:1018C000480C0895CF93DF93E0910001F09101015E
:1018D000809129028083E0910001F09101018081D3
:1018E00090912802892B808390911F02992381F087
:1018F000E0910001F09101018081892B808380912A
:101900000001909101010E94581D81110E94580C04
:10191000C0910001D091010148E050E066E172E021
:10192000CE010E945326892B59F088E0FE01A6E1E2
:10193000B2E001900D928A95E1F7CE010E94F51C6C
:10194000DF91CF91089508950E94A30C089590917E
:10195000950292FF11C098E0899F90011124622B9B
:1019600060931E020E94530880911E028595859502
:1019700085950E94A40C08950E9453080895109222
:101980001E0280E00E94A40C089590911E02809592
:10199000892380931E02282F277091F4282F082E68
:1019A000000C330B9217130659F09091950292FF99
:1019B00007C08595859585950E945F080E94BF0C9C
:1019C00008959091950292FB222720F9281769F03B
:1019D00080FB92F9909395028091940290919502E8
:1019E0000E942A0D82E00E94C50C08958091950204
:1019F00082FB882780F991E089270E94E10C0895F5
:101A000081E00E94E10C089580E00E94E10C0895BD
:101A10006FEF7FEF90E080E00E949526089590E0C0
:101A200080E00E947126873E9E4F19F40E94E913C0
:101A3000089580E0089582E090E00E94692608956C
:101A400083E090E00E946926089584E090E00E947F
:101A500071260895BC0184E090E00E9495260895C7
:101A6000AB01BC018FE090E00E9489260895AB0194
:101A7000BC0183E190E00E948926089560E070E057
:101A8000CB010E94370D089560E070E0CB010E9409
:101A9000300D0E943E0D089567EE7EEF90E080E0ED
:101AA0000E94952660E082E090E00E94772660E048
:101AB00083E090E00E9477261092DD0160E074E1FF
:101AC00084E090E00E94952660E086E090E00E942D
:101AD00077266FEF87E090E00E94772640E050E0A5
:101AE000BA0188E090E00E94892660E08DE090E0F5
:101AF0000E94772640E050E0BA0188E190E00E9421
:101B0000892660E087E190E00E94772640E050E07F
:101B1000BA018CE190E00E94892670E060E080E2EA
:101B200090E00E94952640E050E0BA0188E190E004
:101B30000E94892680E00E9402140E9431140E94B3
:101B4000440D08950E944C0D0895682F8EE090E09A
:101B50000E94772608950E94691E60933E0270934A
:101B60003F02809340029093410260933A02709347
:101B70003B0280933C0290933D0208950E94691EAF
:101B800060933E0270933F02809340029093410223
:101B90006093360270933702809338029093390233
:101BA0000895089508950E94D20D089508950E9401
:101BB000D60D089582E890E10E94DE1C0E94D10DAE
:101BC0000E94D30D089581E008950E94E30D0895C9
:101BD000089508950E94E80D0E94E90D08950E945D
:101BE000A1100E94700408950E94541E0E94411486
:101BF0000E94F8180E94CE100E94EF0D80E00E9413
:101C000097150E94D70D0895AAE0B0E0EAE0FEE043
:101C10000C9421260E94F7102CE2822E22E0922EB4
:101C2000640110E0F601E190F1906F01812F0E94B4
:101C3000C4101F5F153009F44AC0E816F90691F385
:101C40008091420281FD0E94CD100E94E50D782E08
:101C500010E0812F0E94C4107C01F401A190B1908A
:101C60004F018A159B0561F1A826BF2400E0CC2412
:101C7000C394D12CC5018C219D21892BC1F07720E3
:101C8000B1F00E831F8321E0C7018C219D21892B98
:101C900009F420E028870E945D1E8160782F9A87D2
:101CA00089874E815F8168858A850E949C040F5FC9
:101CB000CC0CDD1C0C30F1F6F4013297F182E0829D
:101CC0001F5F153031F60E94AB0D11E023C0E816FE
:101CD000F90609F0B5CF0E945D1E8C0180912A02A1
:101CE00090912B0208171907A1F08FEF89838A833F
:101CF0001B820E945D1E8160782F9D838C834981A9
:101D00005A816B818D810E949C0410932B02009359
:101D10002A0210E00E941619082F81110E94BE0DA0
:101D20000E942317111101C001110E94F6150E9493
:101D3000ED120E9483042A96EDE00C943D26CF9389
:101D4000DF930E949D0FEC01811520E59207D0F5ED
:101D5000811530E4930708F086C0803E910518F5A0
:101D60008D3C910508F07DC0883A910570F4853A64
:101D7000910508F06EC08130910501F10097F1F0F6
:101D80000497E0F4D0E0C0E019C0813C9105D0F7A1
:101D9000C85AD0E0CC0FDD1FC05ADE4F0990D88161
:101DA000C02DD4640BC08115904208F0A8C0C115A5
:101DB00081E0D80718F4C83ED10520F7CE01DF91A5
:101DC000CF910895803622E5920710F5803432E5F0
:101DD000930708F052C08032924508F047C0C11501
:101DE00082E5D80708F47DC02C2F2695269540E281
:101DF000249F900111248C2F8370C1E0D0E002C099
:101E0000CC0FDD1F8A95E2F7C22BD32BDD68D6CF2E
:101E1000803A22E5920760F4803832E5930708F4AF
:101E200041C0CF71D0E0DC2FCC27C46FD06AC6CFC1
:101E3000803C42E5940708F449C0C03E82E5D807DB
:101E400008F0A0CFDC2FCC27CC27DF71C06FD06A81
:101E5000B5CFC55AD0E0CE56DE4FC881D0E0D064B1
:101E6000ADCFD065ABCFDF70D06AA8CFCF71D0E057
:101E7000DC2FCC27C16FD06AA1CF282F26952695BD
:101E8000277080E2289F900111248C2F8370C1E07D
:101E9000D0E002C0CC0FDD1F8A95E2F7C22BD32B16
:101EA000DC688CCF282F26952695277040E2249F4A
:101EB000900111248370C1E0D0E002C0CC0FDD1F7F
:101EC0008A95E2F7C22BD32BDA6878CF8F710E9404
:101ED0003F10C82FD0E0DC2FCC27CC27DF71D06299
:101EE0006DCF8C2F8F710E943F1035E0D695C7952E
:101EF0003A95E1F7CF709C2FEC01D0695FCF8D2F21
:101F00008F710E943F1090E0982F882788279F713B
:101F10009C012C2BE901E3CF462F753030F46C3057
:101F200020F4672F0E94381A089590E080E0089509
:101F30000E948C0F0E949F0E089582389105B9F17E
:101F4000B0F48133910509F47DC048F489329105DC
:101F500009F46DC08A32910509F47BC00895853378
:101F6000910509F45FC08933910509F10895833E15
:101F70009105D9F138F4803E910529F1823E910511
:101F800079F10895863E9105D9F1873E910509F4CE
:101F90003EC0843E910541F52091950221FF24C069
:101FA0008091940284FD19C087EE90E008952091FD
:101FB0009402237009F05AC02091950223FF14C0A7
:101FC00089E290E008952091940220FD38C030917C
:101FD000950230FF09C024FF43C090E080E00895DF
:101FE0002091940222FDF7CF08952091940222FDC2
:101FF0003AC03091950230FD39C024FFF5CFEDCFC6
:102000002091940223FFF0CF24FDE7CFCDCF209184
:10201000940223FD2EC03091950231FFEECF84EE65
:1020200090E008952091940225FFDECFC9CF209142
:10203000940225FD21C02091950223FFD5CF89E38D
:1020400090E0D2CF2091940226FFCECF8AE290E09A
:1020500008952091940226FFC7CF81E390E0089570
:1020600083EE90E0089582EE90E0089580EE90E097
:10207000089586EE90E0089585E390E008959091AC
:10208000940292FF06C0282F28712830F9F4877F28
:10209000846093FF06C0282F28712831F1F4877ED1
:1020A00084612091950220FF06C0382F38713830A6
:1020B000D9F4877F816021FF06C0282F287128313D
:1020C000D1F4877E816194FD877E0895282F247145
:1020D0002430F9F68B7F8860DCCF282F24712431DF
:1020E00001F78B7E8861DDCF382F3171313019F7E0
:1020F0008E7F8860E0CF282F2171213121F78E7EDD
:102100008861E1CF80E008950E94080D08950E9443
:10211000F7102FEF86E791E0215080409040E1F7E3
:1021200000C000000E94F71080E00E94C41080FFF1
:1021300004C00E9484100E94A81E08950E94871067
:1021400008950E940F0D811102C00E94A20D0E94ED
:102150001B0D809342020E94250D9093950280935F
:1021600094020E949E100E94200D0E9426088091D9
:10217000DC010E943E08089508950E94BC10089555
:1021800008950E94C0100895E82FF0E0EE0FFF1FA1
:10219000E056FD4F80819181089508950E945A0272
:1021A000A6E9B2E011961C921E92E0EAF2E01182DA
:1021B000108213961C921E92129713821282159609
:1021C0001C921E9214971582148217961C921E92CE
:1021D00016971782168219961C921E9218971186CE
:1021E000108685E00E940A110E94D3030895CF93C0
:1021F00086E992E00E947A02282F45E060EA72E0C8
:1022000086E992E00E940B11C82F0E94D6038C2F02
:10221000CF9108950895CF92DF92EF92FF921F938E
:10222000CF93DF936C017B01C42F222349F081E01F
:10223000809345020E945D1E909344028093430266
:102240001091450211110AC010E0812FDF91CF914A
:102250001F91FF90EF90DF90CF90089580914302FF
:10226000909144020E94751E059770F3D0E0CC0F48
:10227000DD1FAE01B601C7010E945326892B41F034
:10228000AE01B601C7010E94602610924502DDCF63
:1022900010E0FBCF0E9446200E94F40D0E945320C4
:1022A00008950E9458200E94040E0E9472200895F2
:1022B0000E94F61D0E942C200E94DA0D0E944A11F5
:1022C0000E9451110E94EA0DFBCF80914C0280FFC9
:1022D0000DC06091070170E0660F771F60387105CF
:1022E00070F56115710569F1862F089581FF07C0AA
:1022F0006091070184E0689FB0011124EFCF6091E5
:10230000070182FD0AC080914B028823A9F0209129
:10231000060160910701821710F088E0ECCF869FDC
:10232000C001112433E0880F991F3A95E1F7622F1D
:1023300070E00E94FB25D2CF68E070E0D5CF8FE738
:10234000089581E0089580914C0280FF0CC0609157
:10235000030170E075956795759567956115710531
:1023600049F1862F089581FF06C06091030170E056
:1023700075956795F3CF6091030182FD0BC0909135
:102380004A029923A1F060910201809103019617FE
:1023900038F0682F70E06038710500F38FE708951A
:1023A000899FC001112470E00E94FB25F4CF61E0F9
:1023B00070E0D7CF81E008958D3C31F40E94651123
:1023C00081958093500208958E3C19F40E94651106
:1023D000F8CF8F3C31F40E946511819580934F02B4
:1023E0000895803D19F40E946511F8CF893D29F4C4
:1023F0000E94A3118093510208958A3D21F40E9406
:10240000A3118195F7CF8B3D31F40E94A3118195E3
:102410008093520208958C3D19F40E94A311F8CFC5
:102420009FE2980F983070F4815D990B21E030E0C5
:1024300001C0220F8A95EAF780914E02822B809389
:102440004E0208958D3D31F480914C02816080935D
:102450004C0208958E3D21F480914C028260F7CFAA
:102460008F3DB9F780914C028460F1CF40914F02CB
:102470008D3C59F48091500287FF0DC0109250029C
:1024800041110BC010924B0208C08E3C81F4809128
:10249000500218169CF3442381F0809151029091D0
:1024A0005202892B09F05AC010924A0208958F3CBB
:1024B00049F447FFF0CF10924F02809150028111F2
:1024C000ECCFE0CF803D19F41416ACF3E4CF90913B
:1024D0005102893D29F41916F4F610925102DBCF0E
:1024E0008A3D19F497FFD7CFF8CF909152028B3DD8
:1024F00029F497FFD0CF10925202CDCF8C3D19F422
:102500001916CCF3C8CF9FE2980F983090F4815DF4
:10251000990B21E030E0B90102C0660F771F8A9560
:10252000E2F7CB01809590914E02892380934E0271
:10253000B2CF8D3D31F480914C028E7F80934C025E
:10254000AACF8E3D21F480914C028D7FF7CF8F3D35
:1025500009F0A1CF80914C028B7FF0CF08950E94AB
:102560005D1E9C0190914F0280915002982B21F0AA
:102570003093490220934802909151028091520277
:10258000982B21F030934702209346028DE492E08D
:102590000E94001D089586E0EDE4F2E0DF011D9247
:1025A0008A95E9F710924B0210924A0210924C025F
:1025B0000895FC01828181110EC0838181110BC0BD
:1025C0008481811108C091E08581811101C090E072
:1025D000892F8170089581E0FCCFA6E0B0E0E3EFA1
:1025E000F2E10C942B2686E0EDE4F2E0DE01119698
:1025F00001900D928A95E1F710924F0210925002CD
:1026000010925102109252028B819C81892B89F089
:1026100080914802909149020E94751EAC019091F0
:102620004B029923C9F1809108018417150608F41B
:1026300040C08D819E81892B91F0809146029091BE
:1026400047020E94751EAC0190914A02992309F439
:1026500071C0809104018417150608F479C0BE0189
:102660006F5F7F4F8DE492E00E94AD1D811105C028
:102670008DE492E00E94D91281110E94AF1286E08F
:10268000FE013196ADE4B2E001900D928A95E1F73A
:102690002696E3E00C944726209109018AE0289FC2
:1026A000900111242417350720F69F5F90934B0269
:1026B00002C09F3FD1F71B81112359F00E94651181
:1026C0009FEF11160CF491E0899F802D11248093C7
:1026D0004F021C81112359F00E9465119FEF1116C2
:1026E0000CF491E0899F802D112480935002309149
:1026F0004F02332309F49DCF20915002222309F485
:1027000098CF45EB3403C0011124992359F09093DD
:102710004F0245EB240390011124332339F0309309
:10272000500287CF81E080934F02F3CF81E0809306
:1027300050027FCF209105018AE0289F900111244B
:102740002417350708F08BCF9F5F90934A0202C091
:102750009F3FD1F71D81112359F00E94A3119FEFD4
:1027600011160CF491E0899F802D11248093510261
:102770001E81112359F00E94A3119FEF11160CF432
:1027800091E0899F802D1124809352023091510253
:10279000332309F464CF20915202222309F45FCF3E
:1027A00045EB3403C0011124992359F09093510251
:1027B00045EB240390011124332339F03093520266
:1027C0004ECF81E080935102F3CF81E0809352029B
:1027D00046CF82E290E00E946926833289F483E248
:1027E00090E00E946926843059F484E290E00E94CF
:1027F000692691E0813109F090E0892F8170089578
:1028000080E0FCCFCF93C82F6FEF811163E282E2AB
:1028100090E00E9477266FEFC11164E083E290E0C0
:102820000E9477266FEFC11161E184E290E00E947F
:102830007726CF910895089585E290E00E94692659
:10284000682F70E090E080E008950895CF93C62F40
:102850000E9425146C2F85E290E00E947726CF918C
:10286000089580E00E94021460E070E0CB010E94B5
:1028700026140E94C4190E94931A81E00E94021437
:1028800008950E941B140E941C140E9425140E948B
:10289000E913811102C00E94311408950895CF9365
:1028A000FB01C281CC2309F19C0122503747203122
:1028B000310520F582500E94A31AC0E08C2FCF91E1
:1028C000089581E00E94530843E062E081E00E94A5
:1028D000C903F3CF81E00E945F0843E062E081E03A
:1028E0000E94C903EBCF82E0F6CF8115F7E79F077F
:1028F00089F381309747B9F3C1E0E0CF8115E7E76D
:102900009E07F9F281309747C9F682E0DBCF2FEFBF
:10291000FC01208308950E948714089580E00895A3
:10292000EF92FF920F931F93CF93DF93EC01062F4B
:102930000E948E14811110C0E881E150E331B8F497
:10294000F0E0E754F94D0C940F2619828BE08A834E
:10295000602FCE010E94201FCDB7DEB7E6E00C94B9
:10296000442689818230C1F028F4813061F08FEFF4
:102970008883EECF833099F08430C9F71A821B82A6
:102980001C821D82E5CF0E94691E0E9415266A8363
:102990007B838C839D83DCCF0E941C14F6CF7E0149
:1029A00010E0812F0E94C410F701928383831F5F80
:1029B000F2E0EF0EF11C1530A1F7CACF8981823009
:1029C00031F08530A1F68A810E944E14C1CF6A8110
:1029D0007B818C819D810E9415260E942614B8CF90
:1029E0004B816A8189810E948619982789279827B7
:1029F0009D838C83ADCF2C813D81322723273227C5
:102A00004B816A8189810E94A819A2CF0E94C419B2
:102A10009FCF602FCE010E948B149ACF0E94441A40
:102A2000898396CF0E94461A9827892798279A83E8
:102A300089838ECF6B8170E089819A81AE014C5F72
:102A40005F4F9827892798270E94491A81CF6B8169
:102A500070E089819A81AE014C5F5F4F982789278A
:102A600098270E946E1A74CF0E94931A71CF0E9409
:102A70007419D6CF6B8170E089819A81AE014C5F69
:102A80005F4F9827892798270E94F01961CF6B81A3
:102A900070E089819A81AE014C5F5F4F982789274A
:102AA00098270E94141A54CFB0E0A0E0EAE5F5E1BF
:102AB0000C9426266C017B0164E670E088E70E9496
:102AC000F81BEC0197FD12C010E000E0F601E00FEA
:102AD000F11F849164E670E00E94641CEC01892B74
:102AE00029F40F5F1F4F0E151F0581F70E94DA1C96
:102AF000CE01CDB7DEB7E8E00C94422608950E94DF
:102B00007E150895EAEAF2E080E092E0DF019C01A0
:102B10001D9221503040E1F7F093AF04E093AE04F2
:102B20008FEF9FEF909379028093780208950E942F
:102B30007E150E947F158093740280FD0FC080E88F
:102B4000809373020E94F21B6DE070E083EB91E0D2
:102B50000E945415892B21F080E0089580E2F0CF87
:102B60008091740263E070E081FD26C080EB91E00B
:102B70000E945415892B81F76DE070E080EA91E0A6
:102B80000E945415892B41F70E94691E605A7541B5
:102B90008F4F9F4F6093AA047093AB048093AC0453
:102BA0009093AD040E94821581E080937702809318
:102BB00076021092750208958DEA91E0D9CF2091A6
:102BC000730236E0839FC0011124629F800D911D26
:102BD0001124811522E0920714F090E080E08655E0
:102BE0009D4F9093AF048093AE0408958091770237
:102BF000811103C08091760208950E94691E605A77
:102C000075418F4F9F4F6093AA047093AB048093DC
:102C1000AC049093AD04809176028111EBCF62E019
:102C200070E08EE991E00E945415892B19F781E03C
:102C300080937602DFCFB0E0A0E0E1E2F6E10C9411
:102C400020268091780290917902892B09F4BDC0E9
:102C500080917702882309F4B8C0809175028111B0
:102C6000B4C00E94F61520917802309179022115A6
:102C7000310509F4AAC080E041E050E0082F10E0DF
:102C8000EA01082E02C0CC0FDD1F0A94E2F7BE0154
:102C900062237323672B11F48F5FF0CF909174023E
:102CA00090FF98C0880F880F880F80930C011092B6
:102CB0000F01895F80930D0183E08093100124E66A
:102CC00030E047E050E06AE071E088E70E94921C43
:102CD000892B09F07AC0A80125E0440F551F2A95D9
:102CE000E1F78091740280FF87C0E3E5F2E080E2C3
:102CF000DF011D928A95E9F709E911E085E9E82EDF
:102D000081E0F82E97E0992E88248394D801ED91E4
:102D10008D01D7016D917D01640F752F711D665571
:102D20007D4FF0E0ED5AFD4F30E020E0792C721A33
:102D3000A82C022E01C0AA0C0A94EAF76B0190E0BD
:102D4000D6018D916D018A21A72DA91BA770BA2EDE
:102D50000A2E000CBB0B682E01C0660CBA94EAF771
:102D6000B62CB195A195B109A770BB2701C0869576
:102D7000AA95EAF7A62DA82B80818A2B80839F5FD6
:102D80009830F1F62F5F3F4F31962830310571F6BC
:102D900081E00D39180709F0B9CF04E610E020E210
:102DA00030E043E552E060E488E70E94B31C892BE1
:102DB00061F4C095D0958091780290917902C823F2
:102DC000D923D0937902C0937802CDB7DEB7EEE075
:102DD0000C943C268295880F807680930C01980194
:102DE000369527953695279520930F01815E809320
:102DF0000D011092100163CF46555D4F04E610E0BF
:102E000020E230E0D0CF809176029091770291114C
:102E100003C091E089270895882369F062E070E09B
:102E20008CE991E00E945415892B19F0809176026B
:102E300008951092760280917602EBCF81E008959A
:102E40000E941E1708950F931F9380917702882385
:102E500009F160E080E00E94DF150E9420170E94C7
:102E60001B16809176028823A9F00E94691E0091AA
:102E7000AA041091AB042091AC043091AD04601B06
:102E8000710B820B930B6F3F7F4F8F4F9F4710F457
:102E90000E9403171F910F910895CF93DF93EC01C8
:102EA000FB018281882309F4D2C09E01305723326E
:102EB000310508F0B2C00E94250D909395028093D1
:102EC0009402FE01E150F047E232F10520F4E453B0
:102ED000F94D0C940F2680919402816080939402A6
:102EE00093C0809195028860809395028DC08091F7
:102EF00094028260F3CF809194028460EFCF80913E
:102F000094028860EBCF809195028160EDCF809133
:102F100095028260E9CF809194028061DFCF809139
:102F200094028062DBCF809194028064D7CF0E94AC
:102F3000D507809194028068D1CF809194028C60F3
:102F4000CDCF809195028360CFCF809194028E7F08
:102F5000C5CF80919502877FC7CF809194028D7FE6
:102F6000BDCF809194028B7FB9CF80919402877FEF
:102F7000B5CF809195028E7FB7CF809195028D7FDE
:102F8000B3CF809194028F7EA9CF809194028F7DE0
:102F9000A5CF809194028F7BA1CF0E94D50780910D
:102FA00094028F779BCF80919402837F97CF8091FB
:102FB00095028C7F99CF8091940282FB992790F99A
:102FC00021E0922790FB82F990FB83F987CF8091D3
:102FD0009502982F909591708E7F892B90FB81F9A7
:102FE00083CF90919402892F8F7B96FF806476CF58
:102FF0000E94D50790919402892F97FB87F98058FA
:103000006DCF81E00E94A50D809194029091950270
:103010000E942A0D0E94D50780E0DF91CF9108958C
:1030200080E0F0CF90919402892F8F7E94FF806191
:1030300055CF90919402892F8E7F90FF81604ECF63
:1030400090919502892F877F93FF88604DCF81E013
:10305000E4CFB0E0A0E0EFE2F8E10C942726E82FFF
:10306000F0E0E054FE4FD490282F26952695269523
:1030700030E0F901E05AFD4F0491877010E0082E0E
:1030800002C0159507950A94E2F701701127F9011E
:10309000E05BFD4FE490F12C082E02C0F594E7941C
:1030A0000A94E2F791E0E922FF24F901E05CFD4F88
:1030B000C491D0E002C0D595C7958A95E2F7C1705A
:1030C000DD270115110519F081EE0E94E104E114DC
:1030D000F10419F086EE0E94E1048D2D0E9479051D
:1030E000E114F10419F086EE0E942E050115110578
:1030F00019F081EE0E942E05CD2B19F08CE20E9472
:103100007905CDB7DEB7E7E00C944326EF92FF9246
:103110000F931F93CF93DF93EC01162F0AE0888162
:10312000882309F454C0813009F04EC08981813070
:1031300099F47E0122E0E20EF11C8A810E94790559
:10314000E7012196812F815050F3EFE9FFE031979D
:10315000F1F700C00000F7CF823041F47E0182E039
:10316000E80EF11C8A810E94E104EACF833041F429
:103170007E01E2E0EE0EF11C8A810E942E05E0CF76
:10318000843011F02196DDCF2A81229690E080E0F4
:10319000AE014F5F5F4F2053330B2A30310548F0AB
:1031A000019778F2EFE9FFE03197F1F700C00000F6
:1031B000F7CF089FB001099F700D1124C901860F38
:1031C000971F2981EA01E4CF0E942918BACFCDB711
:1031D000DEB7E6E00C9444268FE891E00197F1F722
:1031E00000C00000089581E008950E94F31808953A
:1031F00081E080937B0284988C9A85988D9A0E94B6
:10320000EC1820917B024DE752E0FA018E2F841BCF
:10321000821708F008958FB1829581707D9904C05E
:1032200090E0892B8193F2CF92E0FBCFB0E0A0E059
:10323000ECE1F9E10C942626F12CE12C84E0C82E77
:10324000D12C80917B02F81630F08E2DCDB7DEB7F1
:10325000E8E00C9442260F2D10E0EFB1E295E1700A
:103260007D9940C080E08E2BD801A358BD4FEC91D2
:103270009E2F93709817A1F1EE0FEE0FE82BEC93B1
:10328000EF70F0E0E356FE4FE801C458DD4F808157
:103290009881890F888320E084305CF0F801E6583B
:1032A000FD4F80818F5F808360E08F2D0E94F51835
:1032B00021E088818D3F5CF4F801E658FD4F808164
:1032C0008150808361E08F2D0E94F51821E0888174
:1032D000082E000C990BB6010E94FB258883E22A78
:1032E000F394AFCF82E0BFCF84E0089550E0440F65
:1032F000551F98E1699F400D511D112498E7899F42
:10330000400D511D1124CA01869608950F931F93F5
:10331000CF93DF938430C8F46530B8F44C30A8F410
:103320000E9476198C010E946926C82FD0E0DC2FFC
:10333000CC27C80101960E9469269E01282BC9014D
:10334000DF91CF911F910F91089590E080E0F8CF29
:103350000F931F93CF93DF93122F032F843078F4B2
:10336000653068F44C3058F40E947619EC01602FF7
:103370000E947726612FCE0101960E947726DF9169
:10338000CF911F910F9108950F931F93CF93DF93C8
:10339000D0E0C0E010E019C00E943F0321E030E01F
:1033A0008C171D0639F034F0402F612F8C2F0E94AE
:1033B00041039C01402F612F8C2F0E94A8190F5FA1
:1033C0000C3051F71F5F153011F000E0E5CF21966A
:1033D000C430D105F9F6DF91CF911F910F91089577
:1033E000EF92FF920F931F93CF93DF93EC018A012B
:1033F0007C01E60EF71ECE018696CE15DF0529F478
:10340000CDB7DEB7E6E00C944426C03E21E0D207FB
:1034100040F40E946926F80180830F5F1F4F2196B8
:10342000EACFF8011082F9CFB0E0A0E0EAE1FAE1DA
:103430000C9426267C016A018C01060F171FEC01F3
:10344000CE018696C017D10729F4CDB7DEB7E8E0E4
:103450000C944226C03E21E0D20740F4FE01EE1952
:10346000FF09EC0DFD1D60810E9477262196E8CFB3
:10347000843038F4653028F44C3018F40E948619F2
:10348000089590E080E0089580E108958AEF91E04A
:103490000895EF92FF920F931F93CF93DF93EC0168
:1034A0008A017C01E60EF71ECE018A5F9D4FCE1584
:1034B000DF0529F4CDB7DEB7E6E00C944426CA3F19
:1034C00021E0D20740F40E946926F80180830F5F53
:1034D0001F4F2196E9CFF8011082F9CFB0E0A0E0AC
:1034E000E4E7FAE10C9426267C016A018C01060FC0
:1034F000171FEC01CE018A5F9D4FC017D10729F439
:10350000CDB7DEB7E8E00C944226CA3F21E0D207EF
:1035100040F4FE01EE19FF09EC0DFD1D60810E94D3
:1035200077262196E7CFCF93DF93C6E0D2E060E025
:10353000CE010E9477262196C11584E0D807B9F7FD
:10354000DF91CF910895A8E0B0E0E9EAFAE10C94A8
:103550002426F82E8FE08F1508F46EC08FEF93E0CD
:103560000E946926811168C006E012E0F11035C0A2
:10357000FE0131966F0188E011928A95E9F7780192
:10358000FFEFEF1AFF0AC8010E94692689831A8299
:10359000882309F451C08130D1F4580182E0A80E8B
:1035A000B11CC7010E9469268A83882309F444C09C
:1035B0009FEF980F9330F0F4780193E0E90EF11C3F
:1035C000C5010E9469268B838823B1F11C8260E0CB
:1035D000C6010E9486188701D2CF011594E0190711
:1035E00059F1C8010E946926811101C0FA940F5F48
:1035F0001F4FBCCF7501843051F702E010E0750118
:10360000EFEFEE1AFE0AC5010E946926F601E00FEF
:10361000F11F8083882381F08C3741F4E2E0F0E0F1
:10362000EC0FFD1FE00FF11F1082D1CF0F5F1F4F76
:1036300057010730110519F72896EAE00C94402647
:10364000CF93DF93EB0186319C4711F50E94210C4B
:103650009A81992399F08A7A91E009F490E0909305
:103660007E02811109C089E20E94F90B0E94620C5E
:1036700080E0DF91CF91089585E3F6CF80917E02BF
:10368000811104C089E20E94010CF0CF85E3FBCFD9
:1036900081E0EFCF0F931F93CF93DF93C42FD22FEF
:1036A000FC0182818823C9F0409381020E945D1E43
:1036B0009093800280937F0280E28C0F883040F4E8
:1036C000C77081E001C0880FCA95EAF70E948205A1
:1036D000DF91CF911F910F910895109181021413E2
:1036E00032C080917F02909180020E94751E883CBA
:1036F000910548F5C0E2CD0F1D17B9F080E2810FAA
:10370000883040F4177081E001C0880F1A95EAF7FD
:103710000E948905C83048F481E09D2F977001C050
:10372000880F9A95EAF70E948205802F0E947905FA
:10373000C83070F6D77081E001C0880FDA95EAF7DB
:103740000E948905C5CF80E28C0F883008F6C770CB
:1037500081E001C0880FCA95EAF7F2CF0F93DB0131
:1037600088519C4787309105A0F5FC01E251F94D45
:103770000C940F2606E221EE41EE6AE17CE7CD01D2
:103780000E944A1B80E00F91089507E225EE45EE66
:103790006BE17CE7F4CF06E221EE40EE68E17CE7E6
:1037A000EECF07E225EE44EE69E17CE7E8CF06E2E2
:1037B00021EE42EE6CE17CE7E2CF07E225EE46EE39
:1037C0006DE17CE7DCCF08E221E045EE6EE17CE7CD
:1037D000D6CF12968C91882319F010928102D3CF04
:1037E00081E0D1CF1092B9008CE08093B8000895A9
:1037F000B0E0A0E0EEEFFBE10C942326B82EEB0145
:103800000E945D1E6C01EE24E394F12CC431D105BD
:1038100060F025E0E22EF12CCF3FDC0731F0CE0145
:1038200064E170E00E94E7257B0184EAA82E94E819
:10383000992E1092BC00A092BC000E945D1E8C01CB
:103840008091BC0087FF0DC08091B900887F8830CF
:10385000F9F08091B900887F8031D1F00FEF1FEF30
:1038600008C0C8010E94751EE816F90648F70EEF59
:103870001FEFCF3FDC07E9F2C6010E94751EC81793
:10388000D907B8F6C801CDB7DEB7EBE00C943F26F8
:10389000B092BB009092BC000E945D1E8C01809192
:1038A000BC0087FF0AC08091B900887F883111F081
:1038B0008034A1F610E000E0E5CFC8010E94751E3B
:1038C000E816F90660F7D3CF0F931F93CF93DF93DA
:1038D000EB018093BB0084E88093BC000E945D1ED6
:1038E0008C018091BC0087FF11C02091B900287F16
:1038F00081E090E0283211F490E080E0919581958C
:103900009109DF91CF911F910F910895CF3FDC076F
:1039100041F3C8010E94751EC817D90710F78EEF32
:103920009FEFEFCFB0E0A0E0E8E9FCE10C942626A1
:103930006B018A017901B9010E94F81BE6010C0DA7
:103940001D1DC017D10711F097FF08C024E920936F
:10395000BC00CDB7DEB7E8E00C944226B7018991F0
:103960000E94641CEECFB0E0A0E0E9EBFCE10C9417
:103970002626C62F6A017901B8010E94F81B97FD1F
:103980000CC0B8018C2F0E94641CE601EC0CFD1CDD
:10399000CE15DF0511F097FF08C024E92093BC0085
:1039A000CDB7DEB7E8E00C944226B80189910E94B9
:1039B000641CEECF84E98093BC0008959093BD0110
:1039C0008093BC01089590938702809386020895A6
:1039D000E0918602F0918702309729F00190F08102
:1039E000E02D0995089580E00895E0918602F09118
:1039F0008702309721F00280F381E02D0995089528
:103A0000E0918602F0918702309739F022E0DC01E4
:103A10002C930480F581E02D09950895A3E0B0E092
:103A2000E4E1FDE10C942C26209184023091850282
:103A300028173907A1F09093850280938402E091C2
:103A40008602F0918702309751F023E029839B830F
:103A50008A830680F781E02DCE0101960995239691
:103A6000E2E00C944826A3E0B0E0E9E3FDE10C9429
:103A70002C26209182023091830228173907A1F069
:103A80009093830280938202E0918602F0918702F4
:103A9000309751F024E029839B838A830680F78145
:103AA000E02DCE01019609952396E2E00C9448267C
:103AB0009C012E5F3F4FAC01485F5F4F80E02417B1
:103AC000350709F40895F90191919F019923B9F3FC
:103AD0008F5FF5CF662349F0FC013296089621915D
:103AE000261729F0E817F907D1F780E0089581E05B
:103AF00008959C01FC0132969FEF80E041914617AA
:103B000051F09F3F19F4411101C0982F8F5F86300B
:103B1000A9F79F3F09F40895290F311D97FD3A95A4
:103B2000F90162830895FC013296089621912613CB
:103B300003C0DF0111971C92E817F907B9F7089540
:103B40000E94791D08950E94931D0895029626E013
:103B5000FC0111922A95E9F7089546E050E00E9491
:103B6000532621E0892B09F420E0822F089508953F
:103B70000E94B71D0895811106C081E080938802DC
:103B80000E94B81D089582E0F9CF83E080938802F7
:103B90000E94B81D08950E94BB1D089581E0809386
:103BA00088020E94B81D08950E94CE1D08950895B0
:103BB00008950E94D81D0895089508950E94D71D64
:103BC0000895CF930E94DC1D0E94F7100E94DD1D16
:103BD000C0E08C2F0E94C410892B31F4CF5FC53018
:103BE000C1F780E0CF91089581E0FCCF85B7806870
:103BF00085BF85B7806885BF08951F921FB61F9245
:103C000011248F939F93AF93BF9380918902811169
:103C100013C08091B0049091B104A091B204B0910E
:103C2000B3044196A11DB11D8093B0049093B104DB
:103C3000A093B204B093B304BF91AF919F918F91C1
:103C40001F901FBE1F9018958091B804843031F1E9
:103C50000E944E041092890288E190E020E40FB6A1
:103C6000F894A895809360000FBE2093600083B7FE
:103C7000817F846083BF83B7816083BF7894889598
:103C800083B78E7F83BF0FB6F894A89580916000AC
:103C9000886180936000109260000FBE08950E94BA
:103CA000D5070E945504089582E084BD93E095BD38
:103CB0009AEF97BD80936E0008952FB7F894809186
:103CC000B0049091B104A091B204B091B3042FBF9D
:103CD00008952FB7F8946091B0047091B104809169
:103CE000B2049091B3042FBF08959C014FB7F8948C
:103CF0008091B0049091B104A091B204B091B3044A
:103D00004FBF821B930B089578941F921FB61F928A
:103D100011248F939F93AF93BF938091B0049091A0
:103D2000B104A091B204B091B3040196A11DB11DDC
:103D30008093B0049093B104A093B204B093B30401
:103D4000BF91AF919F918F911F901FBE1F901895AB
:103D500081E08093E00080E28093D8001092C90057
:103D60008FE19EE40197F1F700C0000087E090EB3F
:103D7000DC018093C1049093C204A093C304B09368
:103D8000C40488E19CE00FB6F894A8958093600085
:103D90000FBE90936000FFCF88E19CE00FB6F894CF
:103DA000A895809360000FBE90936000FFCF809134
:103DB000920208959B01BA019091B8049430E9F4FD
:103DC0008F708093E9009FEF8091E800915085FD0E
:103DD00006C085ED8A95F1F700009111F5CF80912D
:103DE000E80085FF0AC050E040E0C9010E941121AF
:103DF0008091E8008E778093E800089543E050E0DA
:103E0000BC0184E00E94DA1E089546E050E0BC0147
:103E100084E00E94DA1E0895CF93DF93EC0148E01E
:103E200050E0BC0181E00E94DA1E88E0FE01AAE8B1
:103E3000B2E001900D928A95E1F7DF91CF9108955C
:103E4000603231F440E250E0BC0182E00E94DA1EB0
:103E500008958091B704811109C00E94F0220E9448
:103E60004D238091E20084608093E20008951092D7
:103E7000B70408950E94CE1D08956091B40481E0B6
:103E8000611101C080E00E94C51D08959091B804A1
:103E900081E0943009F080E06091B4040E94CB1D71
:103EA000089542E061EC81E00E946C2242E261EC04
:103EB00084E00E946C2242E261EC82E00E946C226B
:103EC00042E260EC83E00E946C229091B80481E0B1
:103ED000943009F080E06091B4040E94BB1D089505
:103EE0008091BA04833009F463C030F48130E1F189
:103EF000823009F4A0C008958A3009F48CC08B3058
:103F000009F471C0893009F052C08091B90481323E
:103F100009F04DC08091BD049091BE04009719F046
:103F2000029709F044C08091E800877F8093E80001
:103F30008091E80082FF37C09091F3008091F200F9
:103F4000029731F48091F100813011F0863021F434
:103F50008091F100809392028091E8008B778093AA
:103F6000E8000E94A02223C08091B904813AF9F4AC
:103F70008091E800877F8093E8008091BD04909154
:103F8000BE04892B61F468E08AE892E070E00E9448
:103F9000AF218091E8008B778093E800089560E07E
:103FA00090E080E0F3CF8091B8048111C1CF0895F3
:103FB0008091B904813AD9F78091BD049091BE04F3
:103FC000892BA9F78091E800877F8093E800809192
:103FD000E80080FFFCCF809119018093F10080916F
:103FE000E8008E77BCCF8091B904813201F78091CF
:103FF000BD049091BE04892BD1F68091E800877FA3
:104000008093E8000E94A0228091BB048093190154
:104010000E94D50708958091B904813241F68091BC
:10402000E800877F8093E8000E94A0228091BC0472
:104030008093930208958091B904813A09F0B7CF33
:104040008091E800877F8093E8008091E80080FFFE
:10405000FCCF80919302C1CF84B7877F84BF0FB616
:10406000F894A89580916000886180936000109218
:1040700060000FBE80E890E00FB6F8948093610076
:10408000909361000FBE0E94D41D08950E94F022FB
:104090000E944D23E2EEF0E080818460808378947A
:1040A0000E94CC25089581E191E00E94E31C0895CF
:1040B0008091B804853031F48091B804853019F0CE
:1040C0000E944F1E08950E94241E8091B6048823EA
:1040D00099F30E94E11D882379F30E94FB200E943E
:1040E000D507EACFA0E2B0E0E8E7F0E20C942C2696
:1040F0008091B804843009F583E08093E9008091D1
:10410000E80082FF1AC08091E80090E085FF09C0B6
:1041100050E040E060E270E0CE0101960E94602134
:1041200091E08091E8008B778093E800992329F053
:1041300060E2CE0101960E949014A096E2E00C94F9
:1041400048260E94A4200895292F332723303105C3
:1041500021F168F42130310509F443C022303105E2
:1041600009F444C090E080E030E020E026C0213235
:10417000310551F122323105A9F76330710590F70D
:10418000FB01EE0FFF1FE055FE4F2081318163558B
:104190007E4FFB01808190E010C09927813091050E
:1041A00081F0009729F00297E9F6E0E7F2E002C01B
:1041B000E8E9F2E0849190E09F01FA0131832083E5
:1041C0000895E4E8F2E0F6CF6330710558F6660F23
:1041D000771FFB01EA54FE4F2081318189E090E096
:1041E000ECCF82E190E027EF32E0E7CF8BE590E083
:1041F0002CE932E0E2CF80E189BD82E189BD09B4DA
:1042000000FEFDCF8091D8008F7D8093D8008091F3
:10421000E00082608093E0008091E00081FDFCCFAF
:104220000895AF92BF92CF92DF92FF920F931F93A8
:10423000CF93DF936C01EB018A010E94BF22F82E1D
:10424000811123C00115110539F0F8018081918198
:10425000C81BD90BC80ED91EB12CA12C2097A9F0D0
:104260008091E80085FD22C08091E8008E778093E0
:10427000E80001151105A1F0F80180819181A80ED7
:10428000B91EB182A08285E0F82E8F2DDF91CF91EB
:104290001F910F91FF90DF90CF90BF90AF90089546
:1042A0000E94BF228823D1F2F82EEFCFF601819130
:1042B0006F018093F1002197FFEFAF1ABF0ACECFB5
:1042C000AF92BF92CF92DF92FF920F931F93CF9343
:1042D000DF936C01EB018A010E94BF22F82E81114D
:1042E00023C00115110539F0F80180819181C81BA7
:1042F000D90BC80ED91EB12CA12C2097A9F0809102
:10430000E80085FD22C08091E8008B778093E8006B
:1043100001151105A1F0F80180819181A80EB91E47
:10432000B182A08285E0F82E8F2DDF91CF911F9171
:104330000F91FF90DF90CF90BF90AF9008950E94B3
:10434000BF228823D1F2F82EEFCF8091F100F60141
:1043500081936F012197FFEFAF1ABF0ACECFFC0107
:104360008091BF049091C00486179707A0F0611553
:10437000710529F49091E8009E779093E80090E011
:104380006115710551F4911108C08091E80082FF18
:1043900034C080E00895BC01F2CF8091B804882336
:1043A000C1F18530C1F18091E80083FD30C080917A
:1043B000E80082FDEACF8091E80080FFE1CF8091A4
:1043C000F3002091F200382F6115710519F02830A3
:1043D000310558F091E02830310509F090E0209146
:1043E000E8002E772093E800CBCF81918093F100F5
:1043F000615071092F5F3F4FE7CF8091B804882348
:1044000041F0853041F08091E80083FFBECF81E02C
:10441000089582E0089583E00895FC018091BF042F
:104420009091C00486179707A0F06115710529F4D3
:104430008091E8008E778093E80090E06115710527
:1044400051F4911108C08091E80082FF35C080E0EE
:104450000895BC01F2CF8091B8048823C9F185305A
:10446000C9F18091E80083FD31C08091E80082FDB0
:10447000EACF8091E80080FFE1CF8091F3002091A6
:10448000F200382F6115710519F02830310558F008
:1044900091E02830310509F090E08091E8008E77B6
:1044A0008093E800CBCF84918093F10031966150E6
:1044B00071092F5F3F4FE6CF8091B804882341F008
:1044C000853041F08091E80083FFBDCF81E0089501
:1044D00082E0089583E00895982F973028F08F7038
:1044E0008093E90081E008959093E900242F762FCE
:1044F00050E0981731F07091EC002091ED00509150
:10450000F00021FD02C09F5FE8CF3091EB003E7FBD
:104510003093EB003091ED003D7F3093ED00309112
:10452000EB0031603093EB007093EC002093ED00D2
:104530005093F0002091EE0027FDE5CF80E0089534
:104540008091B90487FF13C08091E80082FF06C004
:104550008091E8008B778093E80004C08091B804D4
:104560008111F2CF08958091B8048823D9F3809106
:10457000E80080FFF8CF8091E8008E77ECCF2091A3
:10458000E4003091E50095E6A9012091EC00822F2E
:10459000817020FF06C08091E80080FF06C080E0A7
:1045A00008952091E80022FD1AC08091B804882364
:1045B00089F0853089F08091EB0085FD0FC0209156
:1045C000E4003091E50042175307F9F29150E1F60B
:1045D00084E0089582E0089583E0089581E00895DD
:1045E0000E945F230E946723E0EEF0E080818160FB
:1045F0008083E8EDF0E080818F77808319BCA7EDA0
:10460000B0E08C918E7F8C9380818F7E808310921E
:10461000B70408950F931F93CF93DF930E945F23F6
:104620000E946723C8EDD0E088818F7788838881D6
:104630008068888388818F7D888319BC1092B80434
:104640001092B4041092B6041092B50400EE10E07B
:10465000F80180818B7F808388818160888342E03C
:1046600060E080E00E946C22E1EEF0E080818E7FCD
:104670008083E2EEF0E080818160808380818860C9
:104680008083F80180818E7F808388818061888328
:10469000DF91CF911F910F910895E8EDF0E08081B7
:1046A0008F7E8083E7EDF0E080818160808384E00D
:1046B00082BF81E08093B7040E940A230895E8ED49
:1046C000F0E080818E7F80831092E2000895109246
:1046D000DA001092E10008951F920F920FB60F9228
:1046E00011242F933F934F935F936F937F938F93F7
:1046F0009F93AF93BF93EF93FF938091E10082FF6D
:104700000BC08091E20082FF07C08091E1008B7FA7
:104710008093E1000E94CB258091DA0080FF19C0D0
:104720008091D80080FF15C08091DA008E7F809341
:10473000DA008091D90080FF96C080E189BD82E1D6
:1047400089BD09B400FEFDCF81E08093B8040E94CA
:10475000291F8091E10080FF19C08091E20080FF55
:1047600015C08091E2008E7F8093E2008091E2008C
:1047700080618093E2008091D80080628093D800AD
:1047800019BC85E08093B8040E943D1F8091E10030
:1047900084FF2BC08091E20084FF27C080E189BDA7
:1047A00082E189BD89B5982F917080FFFBCF809100
:1047B000D8008F7D8093D8008091E1008F7E809318
:1047C000E1008091E2008F7E8093E2008091E20020
:1047D00081608093E2008091B404882309F449C089
:1047E00084E08093B8040E94461F8091E10083FF1B
:1047F00029C08091E20083FF25C08091E100877F7E
:104800008093E10082E08093B8041092B404809118
:10481000E1008E7F8093E1008091E2008E7F8093A3
:10482000E2008091E20080618093E20042E060E07B
:1048300080E00E946C228091F00088608093F000FC
:104840000E943A1FFF91EF91BF91AF919F918F917D
:104850007F916F915F914F913F912F910F900FBE7C
:104860000F901F90189519BC1092B8040E94371F22
:1048700070CF8091E30087FD93E09093B804B3CFAD
:104880001F920F920FB60F9211242F933F934F93C5
:104890005F936F937F938F939F93AF93BF93CF93C8
:1048A000DF93EF93FF93D091E900DF708091EC00EC
:1048B000C82FC17080FDC0E81092E9008091F0001F
:1048C000877F8093F00078940E9484241092E900FE
:1048D0008091F00088608093F000CD2BCF70C09362
:1048E000E900FF91EF91DF91CF91BF91AF919F913F
:1048F0008F917F916F915F914F913F912F910F9089
:104900000FBE0F901F901895AAE2B0E0EAE8F4E21B
:104910000C942B2689EB94E02091F100FC0121936B
:10492000CF01F4E0813C9F07B9F70E94701F80918E
:10493000E80083FF1EC18091B9049091BA049A30B7
:1049400008F017C1E92FF0E0EB50F94D0C940F2659
:10495000803899F0823809F00CC18091BD048F70C5
:10496000873008F006C18093E9008091EB0085FB59
:10497000882780F91092E90006C08091B5049091D3
:10498000B604911182609091E800977F9093E800BF
:104990008093F1001092F1008091E8008E77E5C0DD
:1049A000882309F4D3C0823009F0E3C08091BB04AE
:1049B0008111D6C08091BD048F702FEF280F263053
:1049C00008F0D7C08093E9002091EB0020FFC8C019
:1049D000933031F48091EB0080628093EB00C0C093
:1049E0009091EB0090619093EB0021E030E001C0EA
:1049F000220F8A95EAF72093EA001092EA0080914C
:104A0000EB008860EACF8111B4C01091BB041F771E
:104A10008091E3008078812B8093E3008091E8000F
:104A2000877F8093E8000E94A0228091E80080FFA9
:104A3000FCCF8091E30080688093E30082E0111155
:104A400083E08093B80495C08058823008F091C00C
:104A50008091BB049091BC048C3D23E09207A1F5AA
:104A600083E08A838AE289834FB7F894DE01139644
:104A700020E03EE051E2E32FF0E050935700E49154
:104A800020FF03C0E295EF703F5FEF708E2F90E044
:104A9000EA30C0F0C7968D939D932F5F243159F76C
:104AA0004FBF8091E800877F8093E8006AE270E062
:104AB000CE0101960E94AF218091E8008B77809310
:104AC000E80057C0C096E7CF6091BD047091BE0466
:104AD000AE014F5F5F4F0E94A120BC01892B09F4FA
:104AE00048C09091E800977F9093E80089819A816F
:104AF0000E940D22E1CF8038E1F58091E800877FA8
:104B00008093E8008091B4048093F10045CF811137
:104B100030C09091BB04923060F58091E800877FAF
:104B20008093E8009093B4040E94A0228091B40482
:104B3000882311F084E005C08091E30087FDFACF5F
:104B400081E08093B8040E94511F13C08091BB0480
:104B5000813079F481E0933009F080E08093B604ED
:104B60001092E9008091E800877F8093E8000E941E
:104B7000A0228091E80083FF0AC08091E800877F2F
:104B80008093E8008091EB0080628093EB00AA960E
:104B9000E3E00C9447260895CF938091B8048823CE
:104BA000A1F0C091E900CF709091EC00892F817045
:104BB00090FD80E8C82B1092E9008091E80083FD09
:104BC0000E948424CF70C093E900CF910895AA1B5E
:104BD000BB1B51E107C0AA1FBB1FA617B70710F0E8
:104BE000A61BB70B881F991F5A95A9F7809590951A
:104BF000BC01CD01089597FB072E16F4009407D051
:104C000077FD09D00E94E72507FC05D03EF490957A
:104C100081959F4F0895709561957F4F0895EE0F90
:104C2000FF1F0590F491E02D0994692796276927C5
:104C300078278727782708952F923F924F925F9287
:104C40006F927F928F929F92AF92BF92CF92DF929C
:104C5000EF92FF920F931F93CF93DF93CDB7DEB701
:104C6000CA1BDB0B0FB6F894DEBF0FBECDBF099495
:104C70002A88398848885F846E847D848C849B84EC
:104C8000AA84B984C884DF80EE80FD800C811B81FA
:104C9000AA81B981CE0FD11D0FB6F894DEBF0FBE29
:104CA000CDBFED010895FB01DC0104C08D910190A1
:104CB000801921F441505040C8F7881B990B089582
:104CC000FB01DC0102C001900D9241505040D8F729
:104CD0000895F999FECF92BD81BDF89A992780B5C4
:104CE0000895A8E1B0E042E050E00C949D26262F04
:104CF000F999FECF92BD81BDF89A019700B40216D2
:104D000039F01FBA20BD0FB6F894FA9AF99A0FBE7F
:104D100008950396272F0E9478260E947726252F34
:104D20000E947826242F0C9478260196272F0E9423
:104D300078260C947726DC01CB01FC01F999FECF93
:104D400006C0F2BDE1BDF89A319600B40D92415013
:104D50005040B8F70895F894FFCFCB05CB05FC057C
:104D6000FC058E06AA062B062B06AF06160725079E
:104D70002507A514B114DE14F014FB14061509154B
:104D800009150915B714B7140E1512151A1527159C
:104D9000341537153A154715A5171918AD17771794
:104DA0007B17B1177F17B517C1178B1712188F17FD
:104DB000C5179317C917F1179717CD17F8179D1730
:104DC000D317DB178317B9178717BD17A117D71785
:104DD000E717011810187117A9172018CB1BD11B42
:104DE000BA1BC51BD71BDD1BE31BA824D024B92588
:0E4DF000D024B92503252425B9257B25872548
:104DFE002002280850011E0A14010021007F220003
:104E0E0003D71E0C1F051FFE1E01F6F73133323677
:104E1E0000000000000097C6343566E200E900EAA3
:104E2E0000B500B600B700CD008301CC008A019218
:104E3E000194012102230224022502260227022ABE
:104E4E0002B300B4006F0070009F01CB018182831A
:104E5E00E200E900EA00B500B600B700CD0083011C
:104E6E00CC008A0192019401210223022402250220
:104E7E00260227022A02B300B4006F0070009F01C1
:104E8E00CB01818283000810181810080000FF0162
:104E9E0000010000FFFF0000010001FF0040227B27
:0C4EAE00A60309032B03AE02C702E702B3
:00000001FF
